:020000040000FA
:1000000000400020D59B0100119C0100139C0100C1
:1000100000000000000000000000000000000000E0
:10002000000000000000000000000000159C01001E
:100030000000000000000000179C0100199C010056
:100040001B9C0100D5370100B59701001B9C0100E6
:100050001B9C010000000000F19201001B9C0100AC
:10006000AD4E0000718E0100499001001B9C010003
:100070001B9C01001B9C01001B9C01001B9C0100A0
:100080001B9C01001B9C01001B9C01001B9C010090
:100090001B9C01000D8A0100D98A0100E94F000074
:1000A000F94F00001B9C0100000000000000000050
:1000B0000000000000000000000000000000000040
:1000C00010B5064C2378002B07D1054B002B02D02E
:1000D000044800E000BF0123237010BD2001002070
:1000E0000000000098870300044B10B5002B03D0DC
:1000F0000349044800E000BF10BDC04600000000F6
:100100002401002098870300164B002B00D1144BCC
:100110009D46402292029A1A924600218B460F4633
:100120001348144A121A28F050FE0F4B002B00D02F
:1001300098470E4B002B00D0984700200021040068
:100140000D000D48002802D00C4800E000BF20F050
:10015000E3FB2000290028F0F9FA20F029FBC04633
:100160000000080000400020000000000000000027
:1001700018010020E02F0020000000000000000017
:10018000014B58687047C046802E0020014B18680C
:100190007047C046802E0020F0B5194E87B03368F6
:1001A000050000200C00019326F0E7FA3060009073
:1001B000206826F011F9019B07003360114E022DD3
:1001C00003D0A0680BF00AFB060021006368083129
:1001D000A81E039308F0ACFE009B04900593002238
:1001E00003AB0321300010F0B5FA074B04009F4227
:1001F00003D00100380021F093F9200007B0F0BDD2
:10020000802E0020B8C702008C9502001FB56946F9
:1002100010F096FB0400200010F0F4FB002802D13F
:10022000044804B010BD0BF0FFFC0028F3D10248D5
:10023000F7E7C04670AB020068AB02001FB5694625
:1002400010F07EFB0400200010F0DCFB002802D13F
:10025000044804B010BD0BF0E7FC0028F3D00248BE
:10026000F7E7C04668AB020070AB020010B50BF0B8
:1002700039FB034B002800D1024B180010BDC046CB
:1002800070AB020068AB020037B50BF08FFB01AB1F
:100290007F2806D8012118700122180001F058FCAF
:1002A0003EBD1E49820988420BD8402149420A437B
:1002B0001A703F2202408020404210435870423161
:1002C000EAE7174C010BA0420ED8202464422143D8
:1002D000197080215F344942224020400A43014383
:1002E00099705A700321D7E70E4CA04212D81024FF
:1002F000850C64422C431C703F25802429406442B5
:100300002A40284021432243204359709A70D870D4
:100310000421C1E7044810F043FFC046FF07000076
:10032000FFFF0000FFFF1000D6FB0200F0B589B010
:10033000019204000D0000222F49019802930FF052
:1003400071FC0090002801D043680093012C16D066
:10035000A4002B19002427000193019B9D4224D067
:10036000009B2E68002B04D03100180026F03BF8CB
:100370000600002C37D137002C680435EDE7002447
:1003800004A9286810F0DCFA27000390039810F005
:1003900039FB051E0CD1002C07D12200174901980A
:1003A0000FF040FC00281BD04468200009B0F0BDCD
:1003B000009B2E00002B04D02900180026F013F813
:1003C0000600002C09D03A003100029810F0F0FE2F
:1003D0000B4B984201D025003E002C003700D5E79A
:1003E000084810F0DDFE3A003100029810F0E0FEFF
:1003F000034B9842C1D1BEE7561300002E110000F6
:1004000070AB0200F7FB020037B501A9050001F04F
:10041000F7FF1E4B04002B40062B05D0AB072AD15B
:100420001B4B2A689A4226D10199200021F04DFAEF
:100430000190012822D1207843B2002B04DB012057
:1004400023785B0018433EBD7F23013418403F3BB7
:10045000034208D13F22237819009143802905D017
:1004600025F0D1FAEFE798435B10F1E780011340E4
:1004700001341843EFE7019B012BE0D0019A0549B5
:1004800005480FF049FA0BF089F9C046070080FFD4
:100490005CD3020010FC0200B8CD0200F0B51400DD
:1004A00087B0029003910022234920000FF0BAFB8D
:1004B00000220500214920000FF0B4FB01230400B5
:1004C000049305931E4F002D07D068681D4B98427A
:1004D00003D004A901F094FF07001B4E002C07D0A5
:1004E0006068184B984203D005A901F089FF060007
:1004F0000024029B154D9C420AD10023059A0193CA
:1005000000933100280004F0D3F80E4807B0F0BD86
:10051000002C07D00023049A01930093390028008F
:1005200004F0C6F80399A3000022C95828000BF074
:100530006DF90134DDE7C0468E150000961100000C
:100540001A8403008C950200C231030058A40200F3
:1005500010B5040086B06A4602A8102100F0CCF95C
:100560000122210068460BF051F902A9024801F06E
:10057000B9FA06B010BDC0465CD3020070B50C6875
:10058000E30726D4A30703D1174B22689A4220D051
:10059000012820D948680BF009FA060020000BF06A
:1005A00069FA051C30001AF049FD011C0F481DF0C6
:1005B00005FA011C041C281C1AF014FA1CF06EFE2B
:1005C000211C1AF037F8032302249843084B0443F4
:1005D000E418200070BD20000BF04CFA1CF05EFE09
:1005E0000AF014FB0400F4E7A0AE02000000204172
:1005F0000000808030B50B0085B01400012802D9BE
:10060000094810F091FF09480121C2680192019D3B
:100610000022A8472200039003A9012011F066F8E8
:10062000039805B030BDC04664FC0200B8D002009B
:1006300013B50400080001F0ADFA6A46010020007D
:1006400010F000F9009B0248002B00D1014816BDB4
:1006500070AB020068AB020037B50024022800D955
:100660008C6848680D6801F095FA0A4B0100002C6F
:1006700000D0094B6A4628009847009B002B07D002
:1006800001991C00002903D0180010F083FF04001A
:1006900020003EBDA90801004508010070B5040016
:1006A0000800150001F076FA2A000100200010F081
:1006B00023F9014870BDC0468C950200F8B50326A9
:1006C000050007003540022D16D10E4B0340062BC6
:1006D00012D0FF23DB05C418B443201C002119F0FD
:1006E000EDFC002806D080231B06E418B443064B1B
:1006F0002C43E7183800F8BD38000FF03FFC070026
:10070000F8E7C046070080FF000080807FB50B003F
:10071000012803D1002118680BF092F8102102A8DB
:1007200020F07EFF0C4902A824F0F6FD032804D136
:100730000A4824F0DAFF0BF031F8039B0193002BF9
:1007400003D1042801D10648F3E702A9054801F0C6
:10075000C9F907B000BDC0468604030024CB0200DF
:1007600080C902005CD3020010B510F023F9002804
:1007700004D1034824F0B9FF0BF010F810BDC046B7
:1007800004CD020010B5022803D00549054825F024
:100790006EFE4A680B20096810F00AFD10BDC046C5
:1007A0004AFC020014CC02007FB50D4D0400A842A3
:1007B00013D00C4E0122010030000BF027F80A493B
:1007C000300021F0E5FB04230293084B0394DB691E
:1007D00002AA0321064801939847280004B070BD7F
:1007E0008C95020058A40200C231030064C50200C7
:1007F00054910200F8B50E0000280FD10400284BD8
:100800001D680021080025F035FF00270600BD42C5
:1008100032D10025AC423ED13000F8BD08688307D4
:1008200014D103681F4A93420DD124F073FD0500D3
:1008300030680AF0D3FF1C4BC26800249A42E0D112
:1008400034680434DDE7194A934201D00AF0C6FF48
:10085000856B002DECD0164B2A689A42E8D0002513
:10086000E6E7EA68FB009958002904D0042902D081
:10087000300010F0DBFE0137AB68BB42F1D8C8E7AF
:10088000A268EB009958002904D0042902D0300056
:1008900010F0CCFE01356368AB42F1D8BCE7C0462E
:1008A000802E002064C5020065F00000B8C7020079
:1008B0006CD2020010B50400082024F076FA024B36
:1008C0004460036010BDC0463C94020010B50400B3
:1008D000431C02D002480FF07DF8024B1C6010BD93
:1008E000A82E0020782E0020014B024A9A647047FF
:1008F000802E0020A82E002070B50500140020F0E6
:100900008FFE024B2560636070BDC046E915020092
:1009100010B50C007F2906D8012120F0C1FE002867
:1009200000D0047010BD224B994210D8022120F053
:10093000B7FE0028F6D04023A2095B4213430370A0
:100940003F232340802464421C434470EAE7194B50
:10095000994214D8032120F0A3FE0028E2D02023DE
:10096000220B5B4213433F2180220370A3095242B2
:100970000B400C401343224343708270D2E70421A2
:1009800020F08EFE0028CDD01023A20C5B42134332
:100990003F2103708023220B5B420A401A434270BE
:1009A000A2090A400C401A431C438270C470B9E784
:1009B000FF070000FFFF000007B5034B00906846EB
:1009C000019303F0EFFF07BDE9150200F7B5456895
:1009D0001600A8681F00019123F007FD0400A86815
:1009E00023F009FD23F001FD0300032058430734E1
:1009F0000019800024F0D9F9074B040003606B68EC
:100A00003200436000238560C36001993B000830D9
:100A100008F0DAFF2000FEBD1495020070B5050055
:100A200088680C0022F072FC2300020002492800B2
:100A300021F06FFB70BDC046AFFC020010B502484C
:100A400024F053FE0AF0AAFE04CD020010B5040003
:100A5000082024F0AAF9024B4460036010BDC04690
:100A600050950200F7B5C56804001E00002D02D1A4
:100A70001D602800FEBD03691830834205D1184B64
:100A8000994203D0174810F04FFD19602000164F0F
:100A900011007B680830019363687B6006F006FDF7
:100AA000019B05007B60012807D002280CD00023A1
:100AB000E36023691B683360DBE723691B683360ED
:100AC000002BD6D1E360D4E7A368986823F08DFCAF
:100AD000002305308000E36024186368EBE7C0461C
:100AE0008C950200CDFC0200802E002013B501ABD6
:100AF000FFF7B8FF01280ED0104C02280DD0019B43
:100B0000A34219D0002B17D001AA01210C4824F0D0
:100B1000E6FD0AF043FE019816BD01980AF05EFE5C
:100B200007490EF0CDFD002801D10198F1E70198A9
:100B30000EF0BEFEA042F8D10020EDE78C95020039
:100B400004CD020010B50B00022808D14A680549FF
:100B50001868FFF7CBFF002803D1FFF76FFF8A6803
:100B6000F5E710BD8C95020010B500220149FFF792
:100B7000BDFF10BD8C95020013B5114C01AB114A9D
:100B80002100FFF76FFF012803D0022805D02000C5
:100B900016BD0D490D4825F06AFC01980AF01EFEAD
:100BA0000B490EF08DFD0028F1D101980AF016FED8
:100BB00008490EF085FD0028E9D101980AF0EEFD04
:100BC0008C95020070C802008FFC0200C8CC0200A5
:100BD000F8C9020004CD020010B5024921F0D8F98D
:100BE00010BDC04603FD020000237F2803D8034B3D
:100BF0001B5C9B07DB0F18007047C04608FD020016
:100C000000237F2803D8034B1B5C1B07DB0F180056
:100C10007047C04608FD020000237F2803D8034B1D
:100C20001B5C5B07DB0F18007047C04608FD020025
:100C300000237F2803D8034B1B5C5B06DB0F1800E7
:100C40007047C04608FD020000227F2808D8054BE7
:100C50000132195C0C23194202D15F3842424241F1
:100C60001000704708FD020000237F2803D8034BC3
:100C70001B5CDB06DB0F18007047C04608FD020056
:100C800000237F2803D8034B1B5C9B06DB0F180057
:100C90007047C04608FD0200F7B52D4FB4370197E5
:100CA0002B4A2C49FC32536C8B4200D8F7BD0325EC
:100CB000043B53641A68264B501CAC331E68040076
:100CC0008108715C2C4064002141831A2940013065
:100CD0000229F4D003260199120109681B018A1820
:100CE0001B499B08002BDBD00F201468044229D13C
:100CF00019480068A04225D80D00B8352D68A542D6
:100D000020D9241A200900900800AC300068A409FA
:100D1000009D0419207835406D00844628413040FC
:100D200001280FD13700AF403D0067463D43257095
:100D30000D00FC356C6C094FBC4206D2201D686466
:100D400000982060013B0432CCE70C00BC34F8E78B
:100D5000802E0020402F0020342F0020C02F0020A4
:100D60000F23994370B506000D00081A412118F0B1
:100D7000DFFF0F4C02002300B03318602300210076
:100D8000AC331E608301EB1AB4310B6023003000DA
:100D9000B83300211D6028F018F88023FC345B0272
:100DA0000122A36400235242E3642265636570BD9F
:100DB000802E0020A222034952008B5A01338B520D
:100DC0007047C046802E0020A222034952008B5A51
:100DD000013B8B527047C046802E0020A223034A5D
:100DE0005B00D05A431E9841C0B27047802E00204D
:100DF000F7B504000325890043180193019B9C4229
:100E000000D1F7BD0F232168194229D1184B1A00D0
:100E1000B43212688A4223D81800B8300068884279
:100E20001ED9891A1A000F093800AC3212688909D4
:100E300051180A7828404000944602412A40012A6D
:100E40000ED12E00864030006646304308701800F0
:100E5000FC30416C074EB14206D20B1D43640F605B
:100E6000FFF71AFF0434C9E7BC331A60F8E7C0463D
:100E7000802E0020C02F0020A22210B5084852006A
:100E8000835A01000133835203000022FC33BC313A
:100E90000A60DA64034A27215A64FFF7A9FF10BDEC
:100EA000802E0020402F0020F8B503262E4C002570
:100EB0002200BC321368AB4213D10222190003276F
:100EC00094462200B0321268920091422AD3230045
:100ED0000022FC335A654532FF32A35A013BA3522C
:100EE000F8BD23001560214AFC335A642300B03357
:100EF0001B689B009D42D9D22200AC321268AB081D
:100F0000D35C2A003240520013413340032B07D1F7
:100F10002200FC32536C191D51641D60FFF7BCFEAA
:100F20000135E3E72000AC3000688A0880180278B9
:100F30000D0016003D406D002E413E40022E09D0AE
:100F4000032E0BD0012E07D13B00AB409A43027019
:100F5000012301E0002BF7D10131B2E76346AB403A
:100F60009A4302700023F7E7802E0020402F0020D4
:100F7000334BF0B51A001900B832B4310968126861
:100F8000521A1900B0331E68026003230022AC31EC
:100F90000F68140011009C4642608260C2600261CA
:100FA00042618261B60065468B08FB5C0D406D00B6
:100FB0002B4165462B404568012B33D0002B2BD0AD
:100FC000022B32D001318E420AD065468B08FB5C81
:100FD0000D406D002B4165462B4001D0012BE2D125
:100FE000012C26D10569013505618569A54200D22C
:100FF00084618E4201D0012BD5D1C368934200D2C7
:10100000C2608E4206D143681B01436083681B01A6
:101010008360F0BD0022C6E7846801320134846039
:101020001C00CFE701354560FAE701354560013422
:10103000C8E7022CD9D1456901354561D5E7C046DD
:10104000802E0020F7B50F300309019302D1002450
:101050002000FEBDA223474A5B00D35A002BF6D1E5
:101060004733FF33D35A5E425E41002B07D0414BDA
:10107000FC33DA6C1B6D9A4201D303F065FE002449
:1010800030213F273B4A3B4BB0321268FC33944639
:10109000384A5B6DAC3210689C4505D8002ED6D11D
:1010A00003F052FE0136EBE70325C25C2A4231D140
:1010B000019D0134A5422ED89B00191B4E1C5A1CC1
:1010C000012C03D12B4C9708FC346765B408001938
:1010D0000324270037407F00A446023CBC40077829
:1010E00002313C43234F0470AC378B4234D2214948
:1010F000204DB431FC350C68E96C33018C46E418A2
:10110000019B921B6344120100212000EB6427F035
:101110005CFE9DE700240C252A4206D1019D013486
:10112000A54203D89B000133C7E700240A4206D139
:10113000019D0134A54203D89B000233BDE7002482
:10114000BA4306D1019A0134A24203D89B0003336B
:10115000B3E7002401339FE73C6888082018644601
:1011600002250C406400A5402C00057801312C4379
:101170000470BAE7802E0020A22230B5164B520030
:101180009A5A002A26D1002824D01A00B4321268B4
:10119000801A1A00FC32546D01098009A04200D265
:1011A0005065AC331800032204688B08E3180C0068
:1011B000150014406400A5401C780131AC431C703C
:1011C00004688B08E35C0C00144064002341134066
:1011D000022BE9D030BDC046802E00200F22030034
:1011E0000240002070B5824228D1154C1000210029
:1011F000B4310968994221D82000B8300568100040
:101200009D421BD9AC345B1A246819099B09E55C23
:101210000800032318404000054110001D40012D27
:101220000CD14D1C2E00AA08A25C1E407600324153
:10123000681A1A400135022AF4D0000170BDC04678
:10124000802E0020F0B585B007000D000292002826
:1012500007D101002800FFF7F5FE0600300005B0B9
:10126000F0BD002903D1FFF787FF2E00F6E70F211D
:1012700000260140B142F1D153480E000300B433BF
:101280001B68BB42EAD80200B8321268BA42E5D9FC
:10129000FB1A1A0900920200AC3212689B090192F3
:1012A000D25C0323009C23405B001A4103231A40B5
:1012B000012AD3D14233FF33C35A002BCED12900A8
:1012C0000F310909B0308C4601680326890003916B
:1012D000210014000131039A914212D201988A0828
:1012E000825C08003040400002413240022A02D1B4
:1012F00001340131EFE7002A03D10133E2186245DE
:10130000F7D3644501D13E00A8E7644521D9009B8D
:10131000032663441900009B0800E218AC239C4696
:10132000294B9C44634605001B6884081C19330044
:1013300035406D00AB40257801309D4325709042CB
:10134000F0D1214B8908FC335A6D9142DBD25965AB
:10135000D9E71B19634523D3032502261A49009BAD
:10136000AC31E3180191009A62449A4209D863466D
:10137000191B090120010A003818002127F025FD5A
:10138000C1E70199180009689A088A1831002840B5
:101390004000814008001178013308431070E2E7F3
:1013A000029E002E00D159E700212800FFF74AFED7
:1013B000061E00D152E72201390027F0EAFC38006E
:1013C000FFF7DAFE4AE7C046802E002010B58CB049
:1013D00005A8FFF7CDFD079B0A4C03930093059AE0
:1013E000069B0949200020F094FE089B099A01936E
:1013F0000B9B06490393009320000A9B20F089FE73
:101400000CB010BD58A40200C7FD0200EAFD0200A6
:10141000F8B5434E434F3300B4331A68424938009D
:1014200020F077FE00243300B0331B689B00A342FA
:1014300023D93F2214422CD132002500AC3210684F
:101440000321AA08825C294049000A4103210A427B
:1014500002D10135AB42F3D12A1B7F2A12D992095E
:101460003249380020F055FE2C003F239C433300C6
:10147000B0331B689B00A34204D838002C4920F0ED
:1014800087FDF8BD2B4B22011A402B49380020F074
:1014900040FE3200AC321268A308D35C0322224023
:1014A00052001341032213403A32022B31D0303222
:1014B000032B2ED03F3A012B2BD13300B4331B68C2
:1014C0002201D3581D4954228B4222D01C49083A8C
:1014D0008B421ED01B49083A8B421AD01A490F3250
:1014E0008B4216D019498B4213D01949123A8B42BC
:1014F0000FD018498B420CD0174905328B4208D0C7
:101500001649043A8B4204D0154926328B4200D149
:101510001B3A1449380020F0FCFD013483E7C04633
:10152000802E002058A4020088FD0200A3FD0200C6
:10153000C2310300F0FF0F00BFFD020000A902004E
:10154000B8D002006CD202005CD302000C960200FC
:1015500060B3020024B302004CC1020064A6020082
:1015600064C502008203030010B51C0002AB1B78A7
:10157000002904D0002B02D10E480FF0D5FFA24263
:1015800007D1824214D003000B490C480EF0C4F975
:1015900006E0824206D9121A094908480EF0BCF941
:1015A0000AF0FCF8844203D2030022000549ECE76C
:1015B00010BDC0462FFE020058FE0200B8CD02004A
:1015C00091FE0200C3FE0200F0B50024170087B0B0
:1015D0000C9D03900491059302940194059B9C42F9
:1015E00006D1019B039A934240D225480FF09CFFFD
:1015F000039B9C4213D26B889B05F6D4019B049AF3
:1016000001330193A300D058FF226B88A60013403A
:10161000012B24D10AF008FB0D9B985517E00623F7
:1016200029880022C900194338000EF0FBFA00286F
:1016300010D16B88DB0506D52A88124912480EF0B6
:101640006BF90AF0ABF80D9A6968A300D150013428
:101650000835C3E7029B406801330293D4E7022BAD
:1016600001D10AF0A3F90D9B9851F0E73B68029A6B
:10167000DB08934201D90548B8E707B0F0BDC04682
:1016800009FF0200F2FE0200B8CD02002AFF0200AC
:10169000054B10B59A6C002A04D00022986C9A640D
:1016A0000AF07CF810BDC046802E0020F7B500205F
:1016B000214A224E12783368111D4900CC5A5F1816
:1016C00059880190A020C00584466405640D4C43F0
:1016D0001B49A4120968787807270500BD43F82D37
:1016E0001DD00125C00885402800A1256746ED00D2
:1016F00001327851D2B2101D4000C55A1F186D0535
:1017000058886D0D68438012001BE4D00A4C22708B
:10171000019A002A02D00A4A33601160FEBD604679
:10172000084A5C688450002903D001220B00002184
:1017300001920A000C00DEE7C62D00203C010020CB
:10174000400100200C05000010B572B600220F4BBE
:1017500018681A6062B6904210D10D4B0D4A1B6892
:101760000D48934200D010001A7802705A884280C7
:101770005A684260002219788A4200D310BD510095
:1017800044185918098901322181F4E740010020E9
:101790003C0100204401002074010020044B054A54
:1017A0001A600023044A1360044A13707047C0464D
:1017B0003C010020CC95020040010020C62D0020F5
:1017C00010B578220249022003F0C0FB10BDC046CC
:1017D000AD160000421E084BFF3A10B504009A42B5
:1017E00007D8FFF7B1FF054B241144801860002093
:1017F00010BD01204042FBE740410F0040010020A6
:10180000044B1B68002B01D1034B1B685888000157
:101810007047C046400100203C010020F7B53D4A1A
:1018200004000D000B00914200D913008022D20069
:10183000D31A0193FFF788FF0122A2404668009265
:10184000164207D12300A0210327C133FF339B0099
:10185000C9055F50002703789F4206DB002D01D0A9
:10186000132B0BD92C4B1860F7BD391D49004218BA
:101870005278D208A24243D00137EDE7009A191DF1
:1018800032434260019A490055050A5A6D0DD20A49
:10189000D2022A430A525205E400520F411814435F
:1018A00001334C700370851C012225E0009A013B36
:1018B000DBB2964303704660BB42F4DD04335B0049
:1018C0001B5A0B52EFE72F00131D5B00195A2E898C
:1018D0004905490D531E1C1D6400245A6405640DFE
:1018E0008C4204D9FC88023F7C81013BF3D2053352
:1018F0005B001E520132023503789A42E3DBB1E706
:10190000002DD3D0019B5A050B5A520DDB0ADB0286
:101910001343D6E7FF0300004001002070B500210B
:101920000400FFF77BFF00210D4B18680578A942E2
:1019300000DB70BD0B1D5B00C3185A78161CD20863
:10194000944201D00131F2E70822524232435A70E8
:101950000123A021A340034AC9058B50E9E7C046F3
:101960003C0100200C050000032230B5024001219B
:10197000002A04D1084C05680B00A54209D00B00D1
:10198000034006D1002A04D1036804481B1A5842B8
:101990004341180030BDC04678AB0200A0AE020043
:1019A00010B50400FFF7E0FF012200280AD103234D
:1019B00002002340022B05D103480440063C2200CC
:1019C000541EA241100010BD070080FF044B886028
:1019D0000B60044B08004B600023CB607047C0468F
:1019E000A0C50200DB1B020010B509F0F7FE084B92
:1019F00042680848D31859424B41AC215B428B43A3
:101A0000B02189005B1804490DF086FF09F0C6FE7D
:101A100040FDFFFFB8CD020048FF0200F7B504000B
:101A20000E00019301208B180A0000210093009BF7
:101A3000934212D82725002900D0053D224F2A00C5
:101A40003900200020F065FB009B9E4214D32A0041
:101A50003900200020F05DFBF7BD1378272B08D05C
:101A6000223B5D426B41DBB20132002BDFD02725E8
:101A7000E4E700230100F7E73278AA4205D12A0003
:101A80001249200020F045FB1AE011495C2A14D0CD
:101A90001F2A09D97F2A15D0019B002B02D053B2EF
:101AA000002B07DB3900ECE70A490A2A05D00A496E
:101AB0000D2A02D0092A05D10849200020F068FA31
:101AC0000136C1E70649DCE7820303008103030016
:101AD00085030300880303008B0303008E030300C8
:101AE00091030300194B70B506000C0098420FD10A
:101AF0004968A0680AF0B0FF051E09D020001FF059
:101B0000B1FD0023ED00236006331D43280070BDA6
:101B1000102023F04AF96168050081600660A06822
:101B20000AF07CFF63686860591C2368994208D1F9
:101B3000A368EB600023EA68A9685354A36023609C
:101B4000E4E7A06823F04FF9E860F3E75CD3020014
:101B500070B504000D00002A05D00AF0AFFFC300E5
:101B60000620184370BD0AF077FF0028F7D12A003D
:101B7000210002481FF009FFF4E7C0465CD30200D1
:101B800010B50A00010002481FF0FFFE10BDC0465C
:101B90000C960200094B10B50340062B01D1C0087A
:101BA00010BD830708D1064B02689A4204D18168B0
:101BB000C0680AF083FFF3E7FFF716FF070080FF16
:101BC0005CD30200064B10B50340062B03D1C008BE
:101BD00023F0B4F910BD8368C0680B60FAE7C04613
:101BE000070080FFF0B50F00002589B01100060046
:101BF0001C003800009503232A00FFF7B5FC0E20D7
:101C0000AF420FD0012F0FD102AA102104A8FEF776
:101C100073FE216802A82A0009F0F8FD04A930002B
:101C2000FFF760FF09B0F0BD2068830722D1164B93
:101C300002689A421ED104A9FFF7C4FF134B0500A6
:101C400020680340062B13D1C00823F068F9040074
:101C5000002C04D1049928000AF0E0FE04001020B2
:101C6000049F23F0A2F806608760C5604460D9E74E
:101C70004468EDE704A901220AF052F80022059910
:101C80000498FFF765FFCDE70C960200070080FF80
:101C9000F0B58DB00400039109F0A0FD04A9060081
:101CA0002000FFF78FFF039B01902F489A0705D173
:101CB0001B6883420AD02D4A934207D0C368002292
:101CC0000293012103AB029CA0470390002406AAC3
:101CD00005A9039809F00CFF2500059BA3420ED827
:101CE0002900002508A81FF0ACFC0A9C059BAB420C
:101CF00021D808A93000FFF7F5FE0DB0F0BD069B16
:101D0000A700D85909F06AFDB04202D018480FF078
:101D10000BFC002C01D0049BED18069BD859154BE9
:101D20000340062B05D1C00823F0FEF82D1801341E
:101D3000D3E78068FAE7002D06D02000049A0199C5
:101D400027F027F8049BE418069AAB00985807A9D7
:101D5000FFF738FF079A0100200027F01AF8079BC9
:101D60000135E418C2E7C046B8D0020000A902005D
:101D7000BE030300070080FFF0B58BB00490086835
:101D80000D000692079309F029FD0400686809F028
:101D900025FD0600A04202D06868FFF725FE08A9CD
:101DA0002868FFF70FFF040009A96868FFF70AFF1A
:101DB000089A0590A3180393049B2700022B19D9B6
:101DC000AB681D498B4206D00121300000912100F3
:101DD00010F024FA0700049B032B0BD0EB68164A83
:101DE000934207D00122210000923000089A10F09F
:101DF00015FA0390039B059AD91B069B38000093A4
:101E0000099B1FF0A3FD002806D1079B0138002B7A
:101E10000CD00A480FF0C4F9094B9E4208D10100CA
:101E200020001FF043FD4400012020430BB0F0BD13
:101E3000041B6400F8E7C0468C950200AA03030067
:101E40005CD30200F0B5070087B008680D0009F008
:101E5000C5FC04A906002868FFF7B4FE05A9040024
:101E60006868FFF7AFFE03902000022F07D9012317
:101E70000093AB68049A2100300010F0CFF9059A66
:101E8000041B049BA418064D9C4205D8039926F018
:101E900071FF002800D1034D280007B0F0BDC046F7
:101EA00068AB020070AB020073B50D000600694616
:101EB0002868FFF787FE01A904006868FFF782FE23
:101EC0000100022E02D908480FF05CFB019A00982D
:101ED000064D824206D8801A201826F04BFF0028B3
:101EE00000D1034D280076BD9803030068AB0200C3
:101EF00070AB0200F0B58FB0079010680C001600B0
:101F000009F06CFC0690012C31D0706809F066FC79
:101F1000069B984202D07068FFF766FD0DA97068B5
:101F2000FFF750FE0D9B089009930DA93068FFF74D
:101F300049FE0D9B0B900493079B012B1CD1049B26
:101F40005D1E01235B420A9300242700049B039437
:101F50000593059B002B13D1039B002B23D1214B11
:101F6000069A0E209A4200D01F480FB0F0BD0723FA
:101F700009931E4B0893D8E7012300250A93E3E752
:101F80000B9B09995A190123089800931FF0DEFC56
:101F9000002816D1039B002B19D1079B002B09D1D8
:101FA0002F00049B5C1E049B0134E21B934212D160
:101FB0003068DAE7079B2C00012B0AD001232F00A1
:101FC00003930A9BED18059B013B0593C1E72C0089
:101FD000F7E7039FE7E70B9B0698D9191FF0D5FC9D
:101FE000C3E7C0465CD30200FC950200170403005F
:101FF000F0B589B0049008680D0009F0EFFB04000B
:10200000686809F0EBFB0700A04202D06868FFF7A0
:10201000EBFC06A92868FFF7D5FD060007A968684C
:10202000FFF7D0FD069A0590B3180393049B340084
:10203000022B19D9AB681E498B4206D0012138000A
:102040000091310010F0EAF80400049B032B0BD040
:10205000EB68174A934207D0012231000092380002
:10206000069A10F0DBF803900025079BAB4212D1D3
:10207000039B2000191B1FF028FC013045000120A4
:10208000284309B0F0BD0599200026F073FE002812
:1020900008D101353400079A039BA6189E42F2D955
:1020A0006D00ECE720001FF0F8FB0600F2E7C046E9
:1020B0008C95020010B5010001481FF058FD10BDBD
:1020C000EB18020010B5010001481FF050FD10BDD3
:1020D000FD180200F7B50600080001A9FFF772FD20
:1020E000019B0500002B01D11348FEBD134B0400DA
:1020F0009E4207D10027019A631B9A4211D8002FF4
:1021000007D1F1E70E4B9E42F4D0019A631B9A422D
:1021100001D80C48E9E72078B04701340028F4D111
:10212000E2E72078FEF76CFD002803D02078B04766
:10213000071ED9D00134DEE768AB0200690C00004D
:10214000810C000070AB020010B501000148FFF7E0
:10215000C1FF10BDE90B000010B501000148FFF7F9
:10216000B9FF10BD010C000010B501000148FFF7D8
:10217000B1FF10BD190C000010B501000148FFF7B8
:10218000A9FF10BD690C000010B501000148FFF760
:10219000A1FF10BD810C0000F0B585B006000C0059
:1021A000170009F01BFB694605003000FFF70AFD28
:1021B0000600042F23D10098A30715D1114B2268E4
:1021C0009A4211D101AA21000BF006FA002802D18F
:1021D0000D480FF0D7F90199029A2800521A711888
:1021E0001FF0D3FB05B0F0BD002301002200280042
:1021F00009F0B4FC335C01205B001843F2E70020D7
:10220000F0E7C04660A40200A6FF020070B51D0002
:102210008EB0002900D174E018683B4C03002340C5
:10222000062B05D0830726D1384B02689A4222D16B
:102230000239012962D80AA9FFF7C4FC0600286800
:102240000440062C15D1C00822F069FE0400002CC1
:1022500004D10A9930000AF0E1FB040010200A9D25
:1022600022F0A3FD2A4B85600360C66044600EB077
:1022700070BD4468EBE7012940D80122104210D01C
:10228000441021000AA81FF0DCF90C9B0021220059
:102290001800019326F099FD0AA91D48FFF722FCBA
:1022A000E5E703A922F0E8FC002805D0049A039989
:1022B00017481FF06AFBDAE7286809F091FC102143
:1022C000002800D0411006A81FF0AAF90AA9286822
:1022D0000EF036FB040020000EF094FB002801D124
:1022E00006A9DAE709F062FBFF2802D909480EF0D7
:1022F00057FFC1B206A81FF0F3F9ECE706480FF04C
:1023000013F90648B3E7C046070080FF5CD302001C
:102310000C96020073FF02008CFF0200FC95020085
:1023200073B50400080001A91600FFF74BFC050077
:10233000042E06D10300019A074920001FF0E9FE90
:1023400073BD064920001FF023FE0123019A2900D6
:102350002000FFF763FBF3E7030403002C3C0300BA
:102360000A001B4B73B51A4005000C000340062BF6
:102370000CD1062A04D1441A60426041C0B212E076
:10238000C00822F0CCFD0600606805E04668062A19
:10239000FAD1C80822F0C3FD002E05D0002803D0D2
:1023A000B04201D0002076BD69462800FFF70AFC44
:1023B00001A905002000FFF705FC009A019B010020
:1023C0009A42EFD1280026F0D5FC44426041D5E77F
:1023D000070080FF084B07B50340062B08D0830792
:1023E00004D10268054B92699A4201D0FFF7FCFACA
:1023F00001A9FFF7E7FB0EBD070080FF9D29000044
:102400000A4B13B503400C00062B08D0830704D1F8
:102410000268074B92699A4201D0FFF7E5FA01A9D9
:10242000FFF7D0FB019B236016BDC046070080FF6D
:102430009D290000F0B59BB00B90059108921021EA
:102440000EAA12A80993FEF757FA059B089A934221
:1024500008D30B9A12AB13CB13C21B6813600B98F3
:102460001BB0F0BD059B19785D1C7D290ED1089B22
:10247000AB4208D9059B59787D2904D112A81FF0D9
:102480002FF9059507E0BC480EF08AFE7B2906D09F
:1024900012A81FF025F9059B01330593D5E7089B8A
:1024A000AB4216D9059B59787B29E7D02B007D29B3
:1024B00003D0212901D03A290DD100252E001A7808
:1024C000212A11D0002206921AE0089A01339A427A
:1024D00001D1AA48D8E71A787D2A03D0212A01D051
:1024E0003A2AF2D11E00EAE708995A1C91421CD9F7
:1024F0005A780692723A012A17D802339942E8D9DB
:1025000000211A7805913A2A1FD15A1C5B7805924E
:102510007D2B1DD1089B059A9342DAD90027059B94
:102520001B787D2B17D09648AEE79648ACE7197814
:102530007B2905D10132013308998B42F7D3C8E7D3
:102540007D29F8D1013A002AF5D1059F0593E6E7E8
:10255000059B0122F0E7002D48D000232878169330
:10256000FEF75AFB00283DD0099B1B680793002B00
:1025700001DD854888E716AA310028001FF0CEF952
:10258000209A169B013A04009A4203D87F4980485A
:1025900023F06DFF219A01339B009D580122099B76
:1025A00052421A60B44231D27A480EF0EBFF013445
:1025B000B44204D223782E2B01D05B2BF7D1611BC0
:1025C00001222800FFF7C4FA00220500010022982A
:1025D0000DF028FB002807D129006F4823F08BF865
:1025E00009F0DCF82C00E3E74568DBE7099B1B6892
:1025F000002B01DA694847E7209A013A9342C5D295
:10260000013321999A005558099A1360002F00D080
:10261000A6E1069B3C00002B04D0069C733C631E85
:102620009C41E4B210AA102116A8FEF765F9290012
:10263000220010A809F0EAF816A95948FFF752FA43
:1026400001235B4205000D931093002F00D18FE012
:102650000FF0CCFE229B059A0293219B3900019337
:10266000209B16A80093099BFFF7E4FE16A81FF015
:1026700025F80026179B0400C3180A9303780693D5
:10268000B34208D0474F1900380026F0DAFBB042B9
:1026900000D16EE1013423782B2B4ED000272D2B57
:1026A00002D0202B01D1043701342378232B02D10F
:1026B000133B1F4301342378302B07D1069B002B9B
:1026C00001D13D330693002E00D130360DAA0A9970
:1026D00020001FF023F9037807902C2B04D10C3B2A
:1026E0001F43030001330793079B1B782E2B06D152
:1026F000079810AA01300A991FF010F90790079B5C
:102700001C78002C1BD02100274826F09AFB0028BB
:1027100003D0079B5B78002B11D02448B4E631002E
:10272000380026F08EFB002804D033000234069EC9
:102730000693B0E706900600ADE70227B4E716A8B7
:102740001EF090FF069B002B08D12800FFF728F908
:102750003C230693002801D002330693002E00D1BB
:10276000203606231F4229D0732C23D110488BE634
:102770003C003E00E9E7C046D1000300120103001F
:102780002A010300F90003004E0103009801030031
:10279000ACCA0200B1010300E8CA0200CE01030086
:1027A0005CD30200180203001D0203002D02030087
:1027B00046020300632C01D1714865E6069B3D2B60
:1027C0001FD05E2B1FD03C2B01D13B3B1F43280069
:1027D000FFF7CAF800282DD0632C50D026D8472CFC
:1027E00013D8452C26D2002C40D0252C22D02800EE
:1027F00022F02BFA22000300624963480DF08CF8A6
:10280000EEE64023E2E78023E0E7582C53D0622C29
:10281000EDD1002303930D9B0222029361230196C5
:10282000009729000EA801F09FFF34E6672C17D807
:10283000652C1BD32800FFF7B3F800286CD0002CC0
:1028400056D06E2C54D0472C3FD8452C41D2252C45
:1028500050D0280022F0F9F9220003004B49CCE7C0
:102860006F2C1AD0782C26D06E2CC0D10023039365
:102870000D9B01960293009761230A22D1E728005D
:1028800009F094F80D9B16A90870012201933B00F2
:1028900000960EA801F00CFFFDE5FB0602D5802393
:1028A0009B001F43002303930D9B01960293009707
:1028B00061230822B5E70022230003920D9A173BFB
:1028C0000292019600971022ABE72300653B022B92
:1028D000BFD8280009F0CEF8109B220002930D9B70
:1028E000011C01933B0000960EA81FF0CDFBD2E522
:1028F0006724EEE72800802409F0BCF8244918F08A
:1029000071F8109B640002930D9B3C430193011CE2
:10291000009623006622E7E7069B3D2B01D11D4868
:10292000B2E5002C01D0732C13D116A92800FFF7B3
:1029300067FD109B0100169A002B00DA1092109B85
:102940009A4200D916930D9B00960193169A3B006C
:102950009FE7280022F079F9220003000E494CE796
:10296000069B002B00D058E601235B420D93109389
:102970006EE66678002E00D0D1E606968BE6C0465D
:1029800072020300A502030030CE0200D60203004B
:102990000000C8420A0303003F030300F0B5A1B0E2
:1029A00005000C000D920A2800D0E4E10DAB0F9356
:1029B0000123073D1093059215403CD11368BF4A8F
:1029C000934206D10FAA10A9059821F0B0FC0595F5
:1029D00002E0BB4A9342FAD1109B11A907930F9BC7
:1029E00020000893FFF7EEF8002309900A93A3074D
:1029F00005D1B44A23689B1A5A425A410A9214AA32
:102A0000102118A8FDF778FF119A00279446099B1A
:102A1000099C63440493049BA3420FD8079BAA48D4
:102A2000BB4229D10A9BA948002B00D0A54818A970
:102A3000FFF758F8BAE100230593CDE7217825295F
:102A400004D018A81EF04CFE0134E4E7049B661C79
:102A5000B34202D89E480EF0A3FB6178252904D129
:102A600018A81EF03DFE3400EEE70025282915D1F8
:102A7000059BAB4202D197480EF056FDA01C060004
:102A80003378292B23D1311A0122FFF761F8010095
:102A900005980FF075FA0127050001360023340070
:102AA00040220026302104200B9320330693049B00
:102AB000A34213D800231293049BA34231D9237855
:102AC0002A2B70D1079BBB4221D88348D4E7049BB3
:102AD000B34201D88148BEE70136D1E723782D2BD8
:102AE00003D12C3B1E430134E1E72B2B01D1293BC1
:102AF000F8E7202B01D10643F5E7232B04D0302B38
:102B0000D8D116430691EEE710230B93EBE77B1C1D
:102B10000C93089BBF00F85808F048FF0C9F1290D8
:102B2000013401235B421393049BA34292D923787F
:102B30002E2B17D1049B601C83428BD963782A2BE0
:102B400038D1079BBB42C0D97B1C0C93089BBF00AC
:102B5000F85808F02BFF0C9F13900234049BA342FB
:102B600000D877E7002D06D1079BBB42ADD9089A64
:102B7000BB009D5801372278672A45D8652A00D3C3
:102B8000B8E0582A5DD01DD81300453B022B00D871
:102B9000B0E0099B5249E41A0094130051480CF02C
:102BA000BBFE08F0FBFD200012AA04991EF0B6FE41
:102BB0000400B6E7002313AA049913931EF0AEFE97
:102BC0000400CBE7632A49D0642AE2D103222B0018
:102BD0001340022B0AD1444B2B40062B06D0FF2377
:102BE000DB05E818904308F011F80500139B0A2252
:102BF0000393129B00960293069B01936123290085
:102C000014A801F0B1FD1FE7732A16D8722A00D369
:102C100080E0692ADAD06F2ABBD10B9B002B02D04F
:102C200084239B001E43139B00960393129B082250
:102C30000293069B01936123E1E7752AC6D0782AA7
:102C4000A7D11300139A173B0392129A0292069A85
:102C500001920B9A164300961022D0E7224B2B408C
:102C6000062B05D0AB0716D1184B2A689A4212D111
:102C70001CA92800FFF7C4FB1C9A0100012A01D0FF
:102C80001A48F9E6129B019320230093330014A8FD
:102C900001F00EFDD8E62800FEF766FE00280BD0F6
:102CA000280008F083FE129B1CA9087001932023C2
:102CB000012200933300EAE70D48DDE600A9020097
:102CC0006CD202000C9602009C0003005CD3020050
:102CD000D7FF0200E9FF0200160003000000030016
:102CE0006700030030CE0200070080FF3D000300B4
:102CF00056000300280008F0BDFE139B22780293C3
:102D0000129B011C0193069B14A8009333001FF033
:102D1000BBF999E616AA10211CA8FDF7EDFD237852
:102D20001A00723A51424A41D2B2722B09D00A9B20
:102D3000002B06D0AB0704D1594B2968994200D12A
:102D40000422290016A808F061FD139A1D9B002A91
:102D500000DA1393139A9A4200D91A00129B1E9913
:102D60000193202314A80093330001F0A1FC1CA8B8
:102D70001EF078FC68E6080008F030FD16A9070090
:102D80002000FEF71FFF0590072D22D118A90D98EE
:102D900008F04AFE03000020834207D018998142C0
:102DA00006DC404B40489F4200D10E2021B0F0BDD0
:102DB000169B1CA859431EF044FC1E9B0121049342
:102DC00000930598189B169A22F07DF91CA93800EB
:102DD0002EE60D9808F002FDB8420FD11CA90D98FF
:102DE000FEF7F0FE1C9E04901D2D17D8192D4ED213
:102DF000052D21D0122D1FD00020D7E7284B0D988C
:102E00009F4209D101221CA921F036FF0028CDD014
:102E10001C9B1D9E0493E7E7FEF7E6FD1F2DEBD1FB
:102E20000123049A00931699330005981EF08EFD35
:102E300000282AD01D48B9E7169B002B07D10D9812
:102E400008F0CCFCB84202D10D9C2000AEE7002E69
:102E5000FBD0169B1CA8F1181EF0F3FB1E9B169AC4
:102E600005991800069325F094FF169A1E9B944628
:102E70000593634418003200049925F08AFF1CA9C9
:102E80003800FEF72FFE0400DFE709488EE70096C2
:102E9000049B169A0599280022F04BF9C8E7C04612
:102EA0000C9602005CD30200FC95020070AB02009D
:102EB00068AB0200F0B5050087B008680C0008F0A8
:102EC0008DFC0090012D28D96668022D26D0A068BF
:102ED00008F06CFD05000021080023F0CBFB04A9DD
:102EE00001902068FEF76EFE049B0400C7183E4B5D
:102EF0009E4241D1BC422AD22078FDF775FE0028BF
:102F00000FD1002D0FD121003A1B00981EF03DFD7E
:102F1000010001980EF08AFB19E0334E01256D4245
:102F2000D9E70134E6E726003078FDF75DFE00289A
:102F300002D10136B742F7D82100321B00981EF0AB
:102F400024FD010001980EF071FBB74209D80198E9
:102F500007B0F0BD0136B74203D1002DF7DD013DCA
:102F600006E03078FDF740FE0028F3D1002DF6DCB6
:102F7000BE42ECD23400C4E7300008F02FFC009BC6
:102F8000984202D03000FEF72FFD05A93000FFF770
:102F900037FA059B0390002B13D114480EF000F96B
:102FA0003E002100321B00981EF0EFFC010001984A
:102FB0000EF03CFBBE42CAD2059BF418002D00DD8A
:102FC000013D2600059B0293002DE9D0029BF318DA
:102FD0009F42E5D3029A0399300025F0CBFE0028EA
:102FE000DFD00136F0E7C0468C9502007103030084
:102FF000F0B507008BB00D00022807D82900380073
:10300000FFF758FF050028000BB0F0BD086808F076
:10301000E5FB08A9049028686E68FEF7D3FD0190CF
:10302000A86808F0C3FC041EE8DB431C180000215C
:10303000059323F01FFB2F4B05009E4202D12E4823
:103040000EF0A0FA09A93000FFF7DAF9099B069003
:10305000002B02D129480EF0A3F8089A019B944650
:1030600063440293A3000393099F029BDE1B002C81
:103070000BD0019BB34208D83A000699300025F0E6
:1030800079FE002821D0013EF1E7EB68A6009F19E8
:10309000019A029B01999A1A04981EF076FC3860F6
:1030A000002CB0D0059B1C1BEB68A70099193A00B7
:1030B000180025F077FE6B6800211A1BEB68920060
:1030C000D81925F082FEAC609DE7039AEB68944620
:1030D00063440793029BF1199A1BD21B04981EF0BC
:1030E00054FC079B013C1860039B0296043B03932E
:1030F000BAE7C0468C950200080403007103030080
:1031000070B50C008AB0050004A920681600FEF70F
:1031100059FD00230593049B0100C218029605ABDC
:1031200006A801940095FFF785F906A90248FEF765
:10313000D9FC0AB070BDC0465CD3020080235B0599
:103140001869034B1B7843438020C002C01A7047A4
:10315000C82D002080235B051869034B1B7843436F
:103160008020C002C01A7047C92D002070B5084DDC
:10317000C4012B68002118191FF015F82868054BA9
:1031800000197F3000781B788342F0D270BDC046B2
:10319000A4010020C72D002010B5C3790400002B26
:1031A00008D0064A037981791068DB01C018013024
:1031B0001EF0F9FF0023237210BDC046A4010020B9
:1031C00010B5124B01001A684379DB01D3181800BF
:1031D0007F300478FF2C08D10879C001121852788A
:1031E000FF2A0FD0887990420CD08A799B1801323F
:1031F000D2B258787E2A01D08A7110BD00234C715A
:103200008B71FAE701204042F7E7C046A401002095
:1032100070B5F8248025A40223786D054D2B4CD180
:103220002B698020E41A2B69C002E41A2969001B6B
:1032300016F07EFD2B4B2C4918702B69E2185218A2
:103240005D421540294B2A4A9B1A2A4A9B18802224
:10325000520511699D4234D38020C002401B16F0F4
:1032600067FD254B641B1870E411244BE4B21C70FD
:10327000A12001230025224A22491360C0004D608D
:103280004B68002BFCD01358DBB2A342F7D21E4987
:1032900001330B7001235360FFF750FF03780500E3
:1032A0001A4CFD2B0FD180235B051869184BC00900
:1032B000C018C0012818206070BD80242B69E4026A
:1032C000AFE76D18C5E7FFF745FF0378803DFD2B9D
:1032D00001D12560F0E7FFF73DFFFD211EF063FF00
:1032E000F7E7C046C92D0020FF87FFFF140100202B
:1032F00000000020A4870300C82D0020C72D002057
:1033000000D00040FCD00040CA2D0020A4010020C5
:10331000FFFFFF01F7B5254B254F1A78254B140009
:103320001B7839680133E001405CFF2829D0013463
:10333000E4B29C4200D101249442F4D180230026BF
:103340005B051B69DB090193E30100933B68E20124
:103350009D182B7828005A425341F6181EF039FF69
:10336000002810D0002304E0DA01AA5C002A0AD168
:103370000133019A9342F7D13868009BC0181EF0C0
:103380001EFF2000FEBD0B4B01341B78E4B201335D
:103390009C4200D10124054B1B78A342D4D1072EB7
:1033A00002D91EF038FCB6E7FF24EAE7CA2D002058
:1033B000A4010020C72D0020F7B507000D0001244F
:1033C0000E4B1B7801930E4B1E68019BA34202D249
:1033D000FF242000FEBDE10171180B78FE2B09D1FE
:1033E0008B78AB4206D103312A00380025F0C2FCAD
:1033F0000028EED00134E4B2E7E7C046C72D002034
:10340000A401002010B5054A03791068DB01C0183B
:10341000817800220330FEF79BFB10BDA401002041
:10342000F0B585B002900D0016000393782948D8B6
:10343000FFF7C2FF0400002E3BD0FF2801D0FFF7AA
:1034400095FEFFF767FF0400FF2803D11E491F48C0
:1034500023F00DF81E4FC0013B680190FE211818A3
:103460001EF0A1FE3B68019AE9B2981802301EF0E6
:103470009AFE3868019B2A00C0180330029901F0B7
:10348000DFFD0C2021F091FC039A0300002A16D0E6
:10349000104A1A600E4A1C7112685C71E40114191A
:1034A000A278DE7102329A7101221A72039A5A725C
:1034B00002E03300FF28E4D1180005B0F0BD064A51
:1034C000E7E70023F8E7C0461E04030050CC0200E3
:1034D000A40100208CA9020038AA020007B501A9A6
:1034E000FEF78EFF0199FFF767FFFF2803D104491C
:1034F000044822F0BCFFFFF739FE03480EBDC0466A
:103500005104030050CC02008C950200F7B50192E3
:10351000027A04000091002A02D124480DF040FEF6
:10352000C579002D06D1224A17680279D201D25DF1
:10353000002A05D1092201251A606D422800FEBD2E
:1035400061797E22C901791808007F30A37900785B
:10355000D21AFF2809D12079C00138184078FF28F5
:1035600019D0C01A824200D902000198461B964227
:1035700000D91600002EE1D0009A01335019C91865
:10358000320025F006FCA3799B19DBB27E2B04D018
:10359000A371AD19D4E70022E7E70023A371637993
:1035A000DB01FB187F331B786371F2E734040300FF
:1035B000A4010020F0B585B00393037A04000291C2
:1035C0000192002B02D130480DF0EAFDC379002BA7
:1035D00008D02E4A03791268DB019B5C019A0092A5
:1035E000002B25D10923039A13600A3B019301980C
:1035F00005B0F0BD7E22A379D71A009A974200D970
:1036000017006079214E0133C001C01833683A00B9
:103610001818029901F014FDA379DB19DBB27E2B97
:103620000AD0A371029BDB190293009BDB1B009362
:10363000009B002BDED1DAE70023A371FFF76AFEBF
:103640000500FF2809D12079FFF790FD00232372A0
:103650001C23039A13601D3BC8E760793368C001DF
:10366000181829007F301EF09EFD3368ED015819AF
:1036700061791EF098FD62793368D2019B187F331F
:103680001B786371CEE7C04634040300A401002018
:10369000002170B5080022F0EDFF012405000C4B5D
:1036A0001B78A34201D2280070BD0A4AE3011068CA
:1036B000C0180378FE2B08D1817800220330FEF772
:1036C00047FA010028000DF0B1FF0134E4B2E6E74B
:1036D000C72D0020A401002073B501A9FEF790FEBC
:1036E0000199FFF769FEFF2803D10E490E4822F029
:1036F000BEFE00257E260D4B1C68C301E3185978D9
:103700009B780233DBB2C201A2187F321078FF2807
:1037100004D1C81A401922F076F976BDF31AED18D3
:103720000023F0E75104030050CC0200A401002064
:103730001FB5034A034B20F078FD05B000BDC0461D
:10374000C13100009931000010B53E2803D0402857
:103750002ED03C2813D1532924D013D84C2921D062
:1037600007D8482950D049291CD0422907D1012324
:1037700048E04F2903D3502914D9512947D025486F
:103780000DF00EFD68293FD006D864293FD0662988
:1037900008D06229F3D1EAE76C2903D0712936D029
:1037A0006929ECD101230420002A00D0136010BD48
:1037B000512926D010D849290CD006D84229D6D074
:1037C000482918D00129DAD1D1E74C2902D0D6D323
:1037D0004F29D4D30423E6E76629FBD006D8622913
:1037E000C5D064290DD05329F4D0C8E76929F1D098
:1037F00003D86829C3D1022304E06C29EAD07129D7
:10380000BDD108231800CFE701230220CCE7012314
:103810000820C9E76004030010B551283DD011D835
:1038200049282ED007D8422803D0482826D001287E
:1038300006D18B5C10E04F284BD017D84C2820D0F5
:10384000002309E0682816D00AD8642836D06628F4
:103850002AD06228F4D18B5601205B00184314E073
:103860006C2803D0712811D06928E9D192005058F2
:1038700022F0C9F809E05200535EEDE75200535AB6
:10388000EAE79200505822F0D9F810BDD2008A1809
:103890001068516822F0A8F8F7E7D2008A1810687B
:1038A000516822F0BCF8F0E7032392005058984387
:1038B000030002201843084BC018E6E7D2008A181C
:1038C0001068516819F0E6F9032302009A431300C7
:1038D000EFE792005058D8E700008080F7B5170056
:1038E000156801AA04000E00FFF72EFF402C05D139
:1038F000019B043C5A1EAA185D4215405A213E3CC9
:1039000062426241B14289412B183B60D2B22B0026
:1039100049421EF0E9F904000D004F2E08D0532E45
:1039200007D125F0A6FA002201002000FEF710F9C9
:10393000FEBD662E06D1032302249843154B204377
:10394000C018F5E7642E06D119F0A4F9032304008A
:1039500002209C43F2E75A2E0FD980220023D20581
:1039600012196B41002B04D1002A02DB22F04BF824
:10397000DEE7290022F038F8DAE7002905D1064B06
:10398000984202D822F05AF8D2E7290022F047F8EC
:10399000CEE7C04600008080FFFFFF3FF0B589B052
:1039A000160005AA02931C6801900F00FFF7CCFED9
:1039B000019B0500402B06D1059B5A1EA2185C42B4
:1039C0003C2314400193029A63191360019B3E3B10
:1039D00003935A425341DBB20293642F12D0662FF5
:1039E0000BD04F2F2AD12800042D00D904203300FA
:1039F000220002991EF0A1F92CE0300008F03AF8FC
:103A00000600F0E7300008F035F819F0F1F8029BF5
:103A10000690079108AA9B00D318083B22001B6858
:103A2000029904201EF089F9039B04345A1E934125
:103A300008AA9B00D318083B1E68D4E7B3070BD134
:103A4000104B32689A4207D123002A0002993000B5
:103A500021F0A6FF09B0F0BD300007F0A7FF060077
:103A6000042DC0D900215A2F02D9884200DAFF3133
:103A70002A00200025F0A9F9019B3E2BB3D12B1F72
:103A8000E418B0E7A0AE0200F7B506000F0014007E
:103A90001D0064280DD0662804D04F2813D194004F
:103AA000E35105E0940018000F1907F0E3FF3860B8
:103AB000F7BD180007F0DEFF19F09AF8E4003F198F
:103AC00038607960F4E703232B40019311D10E4B4A
:103AD0002A689A420DD1019A01004020FFF734FE76
:103AE000230043430200FB180199280021F058FFEE
:103AF000DEE7280007F05AFF2200030039003000FB
:103B00001EF02EF9D4E7C046A0AE0200F0B50500C5
:103B10008BB008680C00FEF75DFC049004A81EF052
:103B20005EF900260127049B03900693069B1978F3
:103B300000291AD1300005F0FBF90122070007A97E
:103B4000606808F0EDF8079B089A05939B180193AD
:103B5000022D1FD9A06807F029FF002817DA089B5B
:103B6000C01814D528480DF01BFB0800FDF754F8C9
:103B7000002806D006A81EF044F9069B1B78732B7C
:103B800000D13800069B361801330693CEE7059B1B
:103B9000181805900025B54202D338000BB0F0BDCF
:103BA000049B01241878FDF737F8002803D004A8F7
:103BB0001EF027F904000598019A03199A42D1D3FF
:103BC000049B1B78732B10D02D19AB000293049B20
:103BD000013C14D3197805AA0398FFF77FFE029AD7
:103BE000A300D31AFB185860F1E72100FDF7C8FFC6
:103BF000059B1C19AB1C9B0005940135D851049BF7
:103C000001330493C7E7C0466D040300F0B589B0E3
:103C1000039101921E00FEF7DDFB049004A81EF044
:103C2000DEF800250290B54201D309B0F0BD049B37
:103C300018780028F9D0FCF7EFFF0124002803D002
:103C400004A81EF0DEF80400039B019A1B199A4297
:103C500002D21B480DF0A4FA049B1B78732B10D0E2
:103C60002D190E9BAF00DF19049B002C24D0A2005D
:103C700052421978BA5803AB0298FFF78FFE013C05
:103C8000F2E70E9B6F1CAD00E858012205A908F071
:103C900047F8069DA54200D925002A0005990398FA
:103CA00025F077F8039B621B58193D00002125F091
:103CB0008CF8039B1C190394049B01330493B2E713
:103CC0006D040300F0B50E0089B0039001CE0F0023
:103CD0001EF0ADF84410210004A81DF0B2FC069DB2
:103CE00022000021280025F070F8039B0096013B7C
:103CF0002A1929003868FFF789FF04A90248FDF74F
:103D0000F1FE09B0F0BDC0460C96020030B50C00C3
:103D100089B005000222606805A908F001F8A068D2
:103D200007F044FE002806DA069B0393C01802D56C
:103D300008480DF035FA0599069AEB1E8A180918FD
:103D400020000C3000902068FFF760FF024809B0A7
:103D500030BDC0466D0403008C950200F7B501919B
:103D600011490400170000251EF012F97B68AB42D0
:103D700004D80E4920001EF00BF9F7BD002D03D02A
:103D80000B4920001EF004F9019BAE009A59094925
:103D90002000BE191EF0BDF90122B168200007F015
:103DA00035FD0135E2E7C046EC050300AC2F03000A
:103DB0007E040300810403000023F0B52F4E93B06E
:103DC000050006A8140033600191012707F0C0FC2C
:103DD0002740031E35D1E2062DD56A68A968112057
:103DE00020F060FA05002E6829000125019A03A839
:103DF00006F07CFCA3082B400022310003A802F04F
:103E000037FE04000320FCF761FD200022F0E4FAF5
:103E100001204042FCF75AFD2C0007F0B7FC002FB0
:103E200024D02900164811F0A5FB3C0001211448BC
:103E300011F0A0FB1AE0A306D5D528001DF041FF24
:103E4000D0E701204042FCF741FD002F03D00121C3
:103E50000B4811F08FFB079807F0C0FC09490BF0E5
:103E60002FFC041E05D03468002FDFD1200013B0D2
:103E7000F0BD0799044807F0EDFCF5E7A801002024
:103E8000850403007CCD020058A4020010B586B062
:103E9000202102A880241DF0C3FB64001E4822F0EC
:103EA000B3FE00231D48039322F0AEFE11F04AFB3F
:103EB0000128F3D002280BD1194822F0A5FE02A850
:103EC0001DF0D0FB01220020164B1A7006B010BD69
:103ED000032802D100230393E8E7042804D0C1B2E9
:103EE00002A81DF0FDFBE1E70F4822F08DFE039BC9
:103EF0000193002B08D10A4822F086FE02A81DF08B
:103F0000B1FB80204000E1E71122012102A8FFF768
:103F100053FF2042C5D0D9E73F050300C279030013
:103F200004780300D80000205A05030030B587B09C
:103F3000202102A880251DF073FB6D00374822F078
:103F400063FE374822F060FE0024364902A803943D
:103F500021F0E2F901280AD1334822F055FE02A8E7
:103F60001DF080FB2000314B1C7007B030BD0228D3
:103F700003D12D4822F048FEE0E7032801D12A486A
:103F8000E0E7042808D1284822F03EFE02A81DF0F0
:103F900069FB80204000E8E7052827D1244822F06B
:103FA00033FE039411F0CEFA6B46C1B2DC1D2170D2
:103FB0000329E4D004290AD11B4822F025FE01215F
:103FC000162202A8FFF7F8FE2842BDD0CDE702A8CE
:103FD0001DF086FB23780D2B03D1164822F014FE2A
:103FE000E0E70121200011F0C5FADBE7039B002B7D
:103FF000AAD002A81DF062FB0AF0B6FC00280BD084
:104000000A2102A81DF06CFB0B4902A821F084F9DB
:104010000328B4D00428ECD10021D1E787040300A1
:10402000D8040300FE04030004780300D800002035
:1040300003050300330503003A05030010B507F03C
:1040400019FD054916F0CEFC0323020002209A4315
:10405000024B1043C01810BDE02E65420000808066
:1040600010B507F007FD054916F0BCFC032302005C
:1040700002209A43024B1043C01810BD35FA8E3C03
:104080000000808010B507F0F5FC011C16F0A0FFC1
:10409000024B002800D1024B180010BD70AB02008B
:1040A00068AB020010B507F0E5FC4400640808495D
:1040B000201C16F08DFF002805D10549201C16F0A4
:1040C00011F8002801D0034810BD0348FCE7C046A2
:1040D000FFFF7F7F68AB020070AB020010B507F0F6
:1040E000C9FC034B034002201843024BC01810BD0B
:1040F000FCFFFF7F0000808010B507F0BBFC440090
:1041000064080849201C16F063FF002807D1054900
:10411000201C15F0DDFF002801D1034810BD034825
:10412000FCE7C046FFFF7F7F70AB020068AB020078
:104130001FB50023019307F09DFC01A919F090F829
:104140000322030002209343064903435B180293B2
:10415000019B934303435B1802A9039304F0E8FE19
:1041600005B000BD0000808070B50D0007F082FC36
:10417000041C280007F07EFC16F040FF0100201C04
:1041800019F04AF80323020002209A43014B10431E
:10419000C01870BD000080801FB50023019307F098
:1041A00069FC01A919F00EF8032302249843074B78
:1041B0002043C0180290019821F025FC02A9039029
:1041C000200004F0B5FE04B010BDC04600008080A1
:1041D00070B50D0007F04EFC041C280007F04AFCE7
:1041E000011C201C19F006FB0323020002209A4345
:1041F000014B1043C01870BD0000808070B50D00E9
:1042000007F038FC041C280007F034FCC00FC3077B
:10421000600040081843032302249843014B2043C5
:10422000C01870BD0000808070B50D0007F022FC42
:10423000041C280007F01EFC011C201C19F062FA67
:104240000323020002209A43014B1043C01870BDA3
:104250000000808010B507F00DFC18F0C9FD0323A5
:10426000020002209A43024B1043C01810BDC04602
:104270000000808010B507F0FDFB19F0F1F9032371
:10428000020002209A43024B1043C01810BDC046E2
:104290000000808010B507F0EDFB19F08FF90323C3
:1042A000020002209A43024B1043C01810BDC046C2
:1042B0000000808010B507F0DDFB19F0E5F803235E
:1042C000020002209A43024B1043C01810BDC046A2
:1042D0000000808010B507F0CDFB19F097F803239C
:1042E000020002209A43024B1043C01810BDC04682
:1042F0000000808010B507F0BDFB18F0D7FE032347
:10430000020002209A43024B1043C01810BDC04661
:104310000000808010B507F0ADFB19F0F7F903231A
:10432000020002209A43024B1043C01810BDC04641
:104330000000808070B50D0007F09CFB041C280075
:1043400007F098FB011C201C19F038FB0323020026
:1043500002209A43014B1043C01870BD00008080BA
:1043600010B507F087FB0021041C15F0A7FE0028FC
:1043700002D007480CF014FF201C19F0DFFC0323C7
:10438000020002209A43034B1043C01810BDC046E0
:104390006E0503000000808070B5060008680D00FF
:1043A00007F068FB0021041C15F092FE002802D0E3
:1043B00018480CF0F5FE201C19F084FA041C012E9C
:1043C00006D1032302209C432043134BC01870BD29
:1043D000686807F04FFB0021051C15F079FE0028E6
:1043E000E6D1FE21281C890515F062FE002803D0C5
:1043F0000A490B4822F03BF8281C19F063FA011C0B
:10440000201C16F017F90323020002209A431043E0
:10441000DBE7C0466E050300000080805D050300F9
:104420006CCE0200F0B50E001100002285B0B71C62
:1044300003901C0030000D4B0092BF00FDF794F874
:10444000380020F0B2FC466006000500039B083FE0
:1044500003600836E719BC4202D1280005B0F0BD60
:10446000002101CC0CF06CFA01C6F4E7FFFF00005C
:10447000F0B58BB00600080011001A0010AB1F78D1
:10448000314B05AD019500930523FDF79DF8912073
:10449000000120F08AFC2D4B04A91860059B4760A1
:1044A00043706B682A4F0370AB6804008370EB683D
:1044B000C3702B7C30003B60FDF7A2FF0025254B2D
:1044C00003900C201D6020F070FC234B060003605D
:1044D00010F010FBB06010F00DFB204B204A18606C
:1044E000204B11001D70204B70601D701F4B300061
:1044F0001D602B0010F0D2F92000049A039920F0DF
:10450000D9FE200009F01AFF0400A84207D110F0DC
:10451000CBF80E4B1C60164B18680CF041FE0122C4
:10452000144B1A7010F0E0FA0028FBD1124B9433B0
:1045300018603B68002B04D00C4B104819681CF025
:104540000FFA07480BB0F0BDC0A30200142F0020E3
:10455000D4010020B00100200CA40200AC01002016
:104560008C950200CD2D0020CB2D0020B401002021
:1045700014000020CC2D0020802E00208005030098
:1045800000220D4910B50B78DBB2934210D10B4AD3
:104590001478002C02D001240C701370084B1B7887
:1045A000002B07D0074A136820331360064B1A68A4
:1045B000100010BD8268FBE7CB2D0020CC2D002021
:1045C000CD2D0020B0010020AC01002073B501A961
:1045D000FDF716FF019B06001748502B17D88020C7
:1045E000400020F0E2FB154C0500230094331860D6
:1045F0000023019A9A420CD15B232800AB5404F0AB
:10460000F7F82B00002808D1943420600C480CF0F7
:10461000C7FDF15CE9540133ECE75A1B0133591E25
:1046200009789B29F9D1290006481DF0AEF900232D
:104630009434236076BDC0468F050300802E002091
:104640009D0503005CD30200D2235B005843134A4C
:10465000F0B51368000C834206D9114C236801336E
:1046600023601368203B13601F23050001270D4EB4
:104670009D431468A5420BD803401A1D202A00D977
:104680002022094C2468934204D3084B1860F0BDE3
:104690003770EEE7E51829710133F4E7B001002027
:1046A000B4010020CD2D0020AC010020B801002075
:1046B000F0B587B0039205910D9A03990500521A3F
:1046C0000CA9097820200C00844339D030293BD034
:1046D0000CA902910121802401911C4036D0D40FF5
:1046E000A4186410171B002C37DD2600019B0493CF
:1046F000B34200DD04966B68049A029928689847D3
:10470000049BF61A002EF1DC039B002B06D01A0046
:1047100005996B6828689847039BE418002F0CDD07
:10472000E419019EBE4200DD3E0032000299286875
:104730006B689847BF1B002FF3DC200007B0F0BD6B
:10474000074902911021C6E70649FAE701271F40F1
:1047500001D11400C7E71700D6E70024D4E7C0460C
:10476000C5050300D6050300F0B593B01C0018ABD7
:1047700020CB05901B780F0016000793CB070BD4B6
:104780008B0703D1854B0A689A4205D0380007F0A1
:104790000DF901274000074381231D4209D1079BE2
:1047A000302B06D11A9B1B9A934200DA1A920023EF
:1047B0001B93380021F004F90AAA1300002806DB35
:1047C000AB070FD52B231370123B04AA9B18E1B241
:1047D000EA0615D5022E0CD130221A704A1C5A70E6
:1047E00002330DE013006A07F1D520221A70192355
:1047F000EBE7082E3BD130221A70AA0534D40133DE
:1048000000220AA81A701B1A2C200693AB06DB178D
:1048100018400EAB0B9310230C931B9B0D92012B96
:1048200001DD40231D43402404ABDA752C40039086
:10483000029123D03B00019200960DAA0CA90BA86F
:1048400006F098FA037807002D2B00D08EE004AA1A
:10485000D3750D9B1B9A013B01370D93012A00DD97
:1048600097E00026340035E00A000E32B7E7102E3C
:10487000C6D130221A700A001732B0E70AAB019392
:1048800000963B000DAA0CA90BA806F073FA1B9B1F
:1048900007002600012B1DDD0D9B1B9C9C4200DAAE
:1048A0001C001A9BA3425EDD01261C1B2E4001D07A
:1048B0002600002401239D432F330793002C09D0A9
:1048C000103B0093002301941A0035490598FFF727
:1048D000EFFE04006B0621D5172104ABC9180B7835
:1048E000002B0AD000230122009301920598FFF7C4
:1048F000DFFE1A9B2418013B1A93069B002B0DD058
:10490000012301930023069A00930AA90598FFF753
:10491000CFFE1A9B069A24189B1A1A931B9B012BF5
:1049200001DC1A9B1B931B9B0D9A0193079B39007B
:10493000009305982B00FFF7BBFE2418002E09D02A
:1049400020230093002301961A0015490598FFF7CC
:10495000AFFE24180B980EAB984201D020F054FA09
:10496000200013B0F0BD00263400A3E71B9B012BF1
:1049700000DC76E70D9B1B9C9C4200DA1C00172391
:1049800004AA9B181B78002B00D00134069BE41866
:1049900087E71B9C9C42F8DA1C00F6E7A0AE0200F9
:1049A00086040300F0B50600140000278DB00D004A
:1049B0002B78002B15D1A94217D30B78002B00D1EF
:1049C00048E14B1C049320230025302208210420B9
:1049D0000893049B1B78002B11D10693013B07938E
:1049E0005FE0252BE7D00135E2E76B1A04931A004C
:1049F000306873689847049B2900FF18DDE72D2B6A
:104A000005D12C3B1D43049B01330493E1E72B2B81
:104A100001D1293BF6E7202B01D10543F3E7212BF8
:104A200001D10D43EFE7302B2CD110331D430892F9
:104A3000E9E7069A4A43D318303B0693049B0133B7
:104A40000493049B1B781A00303A092AF1D92E2BC3
:104A500047D1049B5B782A2B18D0049B0A21013391
:104A6000049300230793049B1B781A00303A092A09
:104A700017D8079A4A43D318303B0793049B013356
:104A80000493F0E700230A210693DAE7049B02333C
:104A90000493236804340793DB43079ADB171A4017
:104AA0000792049B1B786C3B5A425341049AD318DB
:104AB00004931B780593002B00D1CBE0642B00D12D
:104AC000A1E022D8502B29D00ED8453B022B00D88C
:104AD000A9E0012204993068736898470137099466
:104AE00052E001235B427AE7059B622B3CD057D80A
:104AF000582BEED1231D0993069B01950393089B28
:104B0000029341230093313B7BE0059B712B53D0F3
:104B10000FD8672B00D886E0702BDAD1231D0993BC
:104B2000069B01950393089B029361230093513BDD
:104B300067E0059B752B5AD0782BEFD0732BC8D12B
:104B4000231D24680993002C49D0079B013303D10E
:104B5000200024F08EF90790069B079A0193089B8A
:104B6000210000932B000BE0231D09932368002BE9
:104B70000ED0069B04220193089B384900932B001A
:104B80003000FFF795FD3F180499099C01310EE7AD
:104B9000069B05220193089B314900932B00EFE708
:104BA000231D099323680BA90B70069B0122019317
:104BB000089B00932B00E3E7231D0BA920680993B2
:104BC00020F0BCF9079B0100013301D10B9B079337
:104BD000069B079A0193089B00932B00D0E7069B46
:104BE00006220193089B1F4900932B00C8E7231D51
:104BF0000993069B01950393089B029361230093FD
:104C0000573B00220AE0231D0993069B01220393D0
:104C1000089B0195029361230093573B2168300064
:104C20001DF0C5F9AFE7072307349C432300206834
:104C300061680833099318F02DF8079B011C029353
:104C4000069B059A0193089B300000932B001DF0F2
:104C50001BFA98E738000DB0F0BDC046B30503005D
:104C6000B8050300BE05030070B504000D0010492F
:104C70001DF08EF969680122200006F0C7FD0D4E77
:104C8000200031001DF084F9A9680122200006F0FF
:104C9000BDFD310020001DF07BF9E96801222000F4
:104CA00006F0B4FD044920001DF072F970BDC04645
:104CB000E70503007E040300AC2F030070B5060077
:104CC00010200D00140020F070F8034B4660856042
:104CD0000360C46070BDC04660A4020030B58DB0F2
:104CE0000500684606F034FD011E10D12A1D012082
:104CF00021F081FB0122EB6804005B1001335B00B3
:104D00001343EB6006F042FD20000DB030BD01986A
:104D1000054A0368934205D0044A00249342F3D025
:104D200006F03CFD0024EFE704CD0200ACCA02000F
:104D3000044B0B6003684B60436808008B600123E1
:104D4000CB6070479CA4020000B58BB0FCF794F8D0
:104D500068461DF0F1F9054BD968091A8908FCF776
:104D600047F8FCF7A1F80BB000BDC046802E00202C
:104D7000F0B50D00002785B0110003901E0028003B
:104D8000104B02220097FCF7EFFBAB1C9B001800B6
:104D9000029320F00AF80400039B013D0360456084
:104DA0003368029D8360083D0437BD4202D1200074
:104DB00005B0F0BD0021F0590BF0C2FDE319986079
:104DC000F2E7C046FFFF00008022044B52001A6049
:104DD0000123034A1360034A1360704700E100E0B7
:104DE0000C8C0040008000408022054B5200DA67A6
:104DF000044BFF3A5A600022034B1A607047C046CA
:104E000004E100E0008000400C8C004070B50025FB
:104E100001261E4B1E4C1D601E4B18601E4BE6509B
:104E2000C046FFF7E1FF1D4B1D4AE660E25002223B
:104E30001C4BFF20E5500433E25008339218E25037
:104E4000C12380229B001203E250053BFF3BE5504B
:104E5000C2244022144BA400195981430A438021E3
:104E60001A510C341A5909061202120A0A431A512D
:104E7000C0220434195981430A431A518022120472
:104E80001A60802252041A6070BDC0467C2E002039
:104E900000800040CC010020FC0F00004C05000009
:104EA000701700000405000000E100E070B51F4C21
:104EB0001F4D636C002B0AD0002363641D4B1B68DD
:104EC0009847A823DB00EA5800018018E850A36C3B
:104ED000002B09D00023A364164B5B689847164B40
:104EE0000001EA588018E850E36C002B0AD0002338
:104EF000E364104B9B689847A923DB00EA58000144
:104F00008018E850236D002B0ED000230B4A236538
:104F1000AB580B495B18AB500A4A13680633136051
:104F20008022094B12045A6070BDC046FC800040CC
:104F30000080004004000020440500004C050000F3
:104F4000701700007C2E0020FCE100E0F7B5019115
:104F5000032823D8134B8000C758C223124D9B004F
:104F6000EF50012344192364A8230F210F4EDB00C7
:104F70009C46E358AE59921BD218D3170B409A188F
:104F800001990B4B1211C150C1239B00EF50634696
:104F90000020013212019619E650FEBD0120404268
:104FA000FBE7C04614A50200008000404C0500004D
:104FB0000400002003280BD8074B8000C158C223EF
:104FC000064A9B00D150064B064AC250002070474B
:104FD00001204042FBE7C04614A5020000800040CB
:104FE00004000020A121020010B5024B1B68984765
:104FF00010BDC046CC01002010B50024054AA10018
:105000008B58002B02D00020885098470134042C84
:10501000F4D110BDBC010020074A89008B58002B39
:1050200006D1885080211800044A49045160704715
:1050300001204042FBE7C046BC010020FCE100E04B
:10504000F8B50E0005001400FFF7CEFE330003276D
:105050002B433B420BD1BC4209D9A20831002800A6
:1050600013F08CFD2300BB43ED18F6183C40002CD8
:1050700004D022003100280023F0B5FA8022044930
:10508000D2008B58002BFCD0FFF79EFEF8BDC04627
:1050900000E0014010B5024B67221DF02AF910BD57
:1050A000112C020010B5024B97221DF022F910BD01
:1050B000C5620000F7B50F0011001A00C38A857998
:1050C000868A019300230400837143610F4B1DF016
:1050D00010F9A368002B17D1E18A002908D0A38A10
:1050E000002B05D1206B21F070F8206B20F0EDFE35
:1050F000A38AE28A390020001DF0ACF86B1E9D41A6
:10510000019BA571A682E382F7BDC046E15E000067
:1051100010B54379C26A012B03D110001CF002FACA
:1051200010BD0B00006B02491CF026FAF8E7C046E0
:105130003CCF02007FB50B7804000D004E1C002B05
:105140000AD0032B0BD103A928001FF015FC0399EB
:105150000600206B20F050FE300004B070BD012B23
:1051600007D18E1C49780429F6D0006B0BF068F942
:10517000F2E7042B0BD14B788978006B09021943B5
:1051800020F082FE28001FF032FC0600E4E7052B29
:1051900015D14379042B04D02649006B20F080FE02
:1051A000F0E788784B780002184303A91FF0C6FE89
:1051B0000399246BFCF7E4FC01002000EEE71A00E1
:1051C0000A3A0F2A09D803A928001DF017F80399F5
:1051D00006002000FFF79CFFBEE7082B0CD103A9B7
:1051E00028001FF0BFFB039B226A9B000600995812
:1051F000206B20F055FEAFE703AB02AA01A92800FF
:105200001FF026FC05000299206B0BF0CDF8019BE6
:10521000094A9B009B582900039A20009847A368DD
:10522000002B04D0E368002B01D1029BE360039EB6
:1052300092E7C0468C95020048A50200F7B506002B
:105240000192FFF777FF04270500019B9D4200D1E3
:10525000F7BDA91C30006C78FFF76CFF2F3CE4B25F
:1052600005003900082C01D8024B195D306B20F085
:105270008AFFEAE7EE05030010B54379C26A012B05
:1052800003D110001CF05FF910BD0B00006B024948
:105290001CF072F9F8E7C0464CCF020010B5437914
:1052A000C26A012B03D110001CF04DF910BD0B0098
:1052B000006B02491CF060F9F8E7C0462CCF0200F1
:1052C000836870B504000D00002B09D1110005485A
:1052D00020F018FAA060200029000C301DF02BFAF5
:1052E00070BDC04640CD020010B5024AFFF7E8FF8E
:1052F00010BDC04636090300F0B504000D00E162A0
:10530000002162712B7891B0059201619F4A072BB1
:105310003BD1059B012B06D00200836B08321B6832
:105320000599406B9847AB68180008931FF05FFB26
:1053300063790890032B0FD10D9040210DA81FF029
:105340006FFBA36B02009B680D99606B9847A36885
:10535000E882002B00D0D4E008981FF048FB0890AA
:105360000378002B4FD00A3B0F2B47D80DA91CF018
:1053700045FF95220D9B9200934244D00AD8012507
:10538000483A93420DD0824A08992000FFF798FFCF
:1053900011B0F0BD7F4A934202D07F4A0325F0E767
:1053A000002508981FF023FB1821089008A81FF07B
:1053B00037FB089B07900693069B079A934224D1DC
:1053C0006379012B15D9A36B29005B68606B984743
:1053D0006379042B0DD10023E06A03950293C18AFF
:1053E000626B0191009393680521D268006905F012
:1053F00037F8A368002B00D083E0C9E70100674AB3
:105400002000FFF75DFF0225CBE7069B08931B7882
:10541000222B04D106981FF0EAFA0690CCE71F2B46
:1054200001D05F4AB0E709A906981FF0EAFA0378AD
:105430000600432BF5D11FF0DAFA099B9842F0D110
:1054400009A930001FF0DDFA037807000A3B0F2B93
:10545000E7D81FF0CCFA099B06008342E1D003781D
:10546000472BDED11FF0C3FA099B9842D9D10AA974
:1054700038001CF0C3FE30001FF0BEFA9F210B90D5
:105480000BA81FF0CDFA01000B981FF0A4FA9B2285
:105490000A9B0600920093421BD1012804D10B986D
:1054A00003780A3B0F2B01D93E4A6DE72669731C2E
:1054B0002361059B012B21D00DA91CF09FFEA36B3E
:1054C0000D9ADB683100606B9847002816D1364A88
:1054D0005AE7364A93421AD1012803D10B98037830
:1054E000032B01D0324A4FE7059B012B06D0666B98
:1054F0001FF051FA010030001CF095F9A368002B51
:1055000088D0200008990C301DF015F940E7892259
:105510009200934222D1012803D90B980378032BE0
:1055200001D0244A30E7059B012BE7D00CA91FF0DE
:1055300023FA01270B900B980378032B01D01E4A06
:1055400022E70DA91FF018FA01370B900D9A0C995C
:10555000606B1CF06FF9BE42EDD1CFE7059B012BCC
:10556000CCD0032800D95CE70B9B18000D931FF0EB
:105570003EFA0E901FF03BFAA36B0F901F693200AA
:105580000DAB0A99606BB847B8E7C0462B0803001B
:105590004F08030091020000DA0200005C080300DB
:1055A00084080300A7080300C3080300FF010000EC
:1055B000D3080300EF08030014090300F0B587B017
:1055C00001920A000593531E9A410D0006000599A9
:1055D000019804921FF0FFF92C1E039009D02B783C
:1055E00000243A2B05D102002100306B20F05EFE32
:1055F0002C00049B019F0293059B9F421ED1002C0F
:105600003BD1039A049B944663441900306B20F00D
:1056100041FE002D3ED1019B9F422CD0019B9C421C
:105620003BD120001FF0E8F900220100300000F01B
:1056300039F801981FF0DBF90190ECE73B783A2B41
:105640000CD1002C12D1049B306B5A1E039B3C00E2
:10565000D218029BD21A190020F028FE38001FF041
:10566000C6F9029B070001330293C5E70C4A3900D3
:105670003000FFF725FE07B0F0BD002DCBD0AC42C7
:1056800008D120001FF0B8F900220100300000F01E
:1056900009F8C0E700222900F8E700220199C5E7D0
:1056A00061060300F0B50B7817001A000A3A85B0BE
:1056B00004000D000F2A10D803A928001CF09EFD3D
:1056C00003992000002F01D0022F03D1FFF7D4FD52
:1056D00005B0F0BDFFF71CFDFAE76A4A192B00D8A8
:1056E000CBE01A3B2A2B00D182E005DC062B08D048
:1056F000292B11D0644AC0E02B2B00D194E0972BCA
:10570000F8D1002F00D0B7E003A928001FF079F9E5
:105710000200039B00219BE002A928001FF071F901
:105720000600022F03D001002000FFF703FD300028
:105730001FF05DF9029906001CF055FD0028D9D133
:105740003378A22B13D1300003A91FF05AF90600B9
:1057500030001FF04CF9039A0190904207D2022FBB
:1057600003D031002000FFF7E5FC019EF0E733781D
:10577000482B21D1022F06D1206B20F031FC206B69
:1057800020F0EDFB0EE030001FF036F901002000A4
:10579000FFF7D0FC206B012FF2D120F0F5FB206B3E
:1057A00020F0C5FB30001FF022F902991CF01BFD10
:1057B000002800D08CE79DE7492B9BD130001FF0DB
:1057C0001BF903A91CF01AFD012F07D1206B20F053
:1057D000D1FB0399206B20F082FBE3E7022F02D17B
:1057E000206B20F0E6FB0399206B20F0ABFBD9E7A0
:1057F00003A928001FF005F9039906001CF0F3FC2B
:10580000002800D076E7002F36D1350003A9280004
:105810001FF0F7F806001FF0EAF80378A92B1BD158
:1058200000231A00310013E0002F25D103A928001E
:105830001FF0E7F8039905001CF0D5FC021E02D00A
:105840003B003A0066E72B78A62BDFD00300290047
:105850002000FFF7B3FE3BE7AA2B05D103A91FF0F9
:10586000D0F8039B0200DDE7C12B00D142E71FF017
:10587000BEF8320003004DE7044A29002000FFF77C
:105880001FFD25E7020603001A0603003506030084
:10589000F0B5170085B0040008000D001FF0A7F850
:1058A000390006001CF09FFC019000281FD02379CE
:1058B000002B17D0E36A1E78002E13D1F6212000AA
:1058C000FF31FFF725FC29002000FFF733FC3300F0
:1058D00032000121206B20F027FD206B20F05EFBC1
:1058E00005B0F0BD29002000FFF724FCF5E7337870
:1058F0006D2B1DD1290001222000FFF7D3FE3000BF
:105900001FF07AF84378811C4E3BDBB218260A2B35
:1059100001D8234AD65C2000FFF70CFC3100206B35
:1059200020F031FC022229002000FFF7BBFED7E760
:105930006E2B2ED1300003A91FF063F8060007007C
:10594000039BBB421FD101992000FFF7F3FB206BA3
:1059500020F010FB002229002000FFF7A3FE019B8E
:10596000B342BDD030001FF042F8019B05008342D6
:1059700002D0206B20F0FEFA310000222000FFF759
:1059800091FE2E00EBE738001FF031F80197070079
:10599000D6E731002000FFF7CDFB019AC3E7C046F0
:1059A000F7050300F0B50B788FB00A3B04000191B6
:1059B00003920F2B00D906E108001FF018F80378B6
:1059C000432B00D0FFE001981FF011F80BA91FF046
:1059D00018F8037842780A3B1B021343A14A93420A
:1059E00000D0F0E01FF003F803780500472B00D04B
:1059F000E9E01FF041F8002800D0E4E028001EF0A4
:105A0000F6FF0B9B984200D0DDE028001EF0F4FF6B
:105A10009F210C900CA81FF003F80C9B0700029329
:105A2000012302980D931EF0E2FF05000C90B8428E
:105A300000D1BDE01EF0DBFF0C90B8420ED0037821
:105A4000032B00D0BFE00DA91EF096FF0D9B0C901C
:105A5000002B00D1B7E0B84200D0B4E0029B1B7825
:105A60004533DBB2022B00D8ADE02B784533DBB2F7
:105A7000022B00D8A7E00B9B180005931EF0B7FF80
:105A8000039B0700984200D100270D9B26690493D1
:105A9000238B26830693638B0793E38B0893731CF6
:105AA0006383A38BE383331D23612B78D91E039378
:105AB0000B00591E8B410993039B032B03D0290034
:105AC0002000FFF737FB02992000FFF733FBF11CA2
:105AD000206B20F09AFAB11C206B20F059F9206B52
