:020000040000FA
:1000000000400020D59B0100119C0100139C0100C1
:1000100000000000000000000000000000000000E0
:10002000000000000000000000000000159C01001E
:100030000000000000000000179C0100199C010056
:100040001B9C0100D9460100B59701001B9C0100D3
:100050001B9C010000000000F19201001B9C0100AC
:10006000556F0000718E0100499001001B9C01003A
:100070001B9C01001B9C01001B9C01001B9C0100A0
:100080001B9C01001B9C01001B9C01001B9C010090
:100090001B9C01000D8A0100D98A010091700000AB
:1000A000A17000001B9C0100000000000000000087
:1000B0000000000000000000000000000000000040
:1000C00010B5064C2378002B07D1054B002B02D02E
:1000D000044800E000BF0123237010BD2001002070
:1000E0000000000098870300044B10B5002B03D0DC
:1000F0000349044800E000BF10BDC04600000000F6
:100100002401002098870300164B002B00D1144BCC
:100110009D46402292029A1A924600218B460F4633
:100120001348144A121A28F050FE0F4B002B00D02F
:1001300098470E4B002B00D0984700200021040068
:100140000D000D48002802D00C4800E000BF20F050
:10015000E3FB2000290028F0F9FA20F029FBC04633
:100160000000080000400020000000000000000027
:1001700018010020E02F0020000000000000000017
:10018000F0B505008BB008680C000DF0FBFE049084
:1001900004A821F075F900260127049B039006931B
:1001A000069B197800291AD1300000F007FD0122C2
:1001B000070007A9606806F04FFE079B089A0593A1
:1001C0009B180193022D1FD9A06806F08BFC002814
:1001D00017DA089BC01814D5284802F089FB0800DC
:1001E0000FF0AEFA002806D006A821F05BF9069BB6
:1001F0001B78732B00D13800069B36180133069309
:10020000CEE7059B181805900025B54202D33800AB
:100210000BB0F0BD049B012418780FF091FA002870
:1002200003D004A821F03EF904000598019A0319AF
:100230009A42D1D3049B1B78732B10D02D19AB009D
:100240000293049B013C14D3197805AA039800F08B
:10025000BFF9029AA300D31AFB185860F1E72100F6
:100260000DF066FA059B1C19AB1C9B00059401352B
:10027000D851049B01330493C7E7C046D6FB020064
:10028000F0B589B0039101921E000DF07BFE049041
:1002900004A821F0F5F800250290B54201D309B079
:1002A000F0BD049B18780028F9D00FF049FA01241A
:1002B000002803D004A821F0F5F80400039B019A5C
:1002C0001B199A4202D21B4802F012FB049B1B78B6
:1002D000732B10D02D190E9BAF00DF19049B002C3F
:1002E00024D0A20052421978BA5803AB029800F009
:1002F000CFF9013CF2E70E9B6F1CAD00E8580122DC
:1003000005A906F0A9FD069DA54200D925002A00F1
:100310000599039828F03DFD039B621B58193D0089
:10032000002128F052FD039B1C190394049B013308
:100330000493B2E7D6FB0200F0B50E0089B003903B
:1003400001CE0F0021F0C4F84410210004A824F0CD
:10035000AAFA069D22000021280028F036FD039B02
:100360000096013B2A1929003868FFF789FF04A984
:1003700002480DF08FF909B0F0BDC04608C6020072
:1003800030B50C0089B005000222606805A906F0AE
:1003900063FDA06806F0A6FB002806DA069B03931F
:1003A000C01802D5084802F0A3FA0599069AEB1E78
:1003B0008A18091820000C3000902068FFF760FFB1
:1003C000024809B030BDC046D6FB02001CAC02009A
:1003D00030B58DB00500684603F0C8FC011E10D191
:1003E0002A1D012021F0FEFA0122EB6804005B10B7
:1003F00001335B001343EB6003F0D6FC20000DB02B
:1004000030BD0198054A0368934205D0044A002490
:100410009342F3D003F0D0FC0024EFE730A30200B6
:10042000D8A00200044B0B6003684B6043680800CF
:100430008B600123CB6070479C90020010B53E2872
:1004400003D040282ED03C2813D1532924D013D8D0
:100450004C2921D007D8482950D049291CD04229FD
:1004600007D1012348E04F2903D3502914D951293A
:1004700047D0254802F03CFA68293FD006D86429C5
:100480003FD0662908D06229F3D1EAE76C2903D06E
:10049000712936D06929ECD101230420002A00D02B
:1004A000136010BD512926D010D849290CD006D888
:1004B0004229D6D0482918D00129DAD1D1E74C29D0
:1004C00002D0D6D34F29D4D30423E6E76629FBD044
:1004D00006D86229C5D064290DD05329F4D0C8E7C5
:1004E0006929F1D003D86829C3D1022304E06C291B
:1004F000EAD07129BDD108231800CFE701230220DB
:10050000CCE701230820C9E7E7FB020010B551281A
:100510003DD011D849282ED007D8422803D04828EA
:1005200026D0012806D18B5C10E04F284BD017D87D
:100530004C2820D0002309E0682816D00AD8642867
:1005400036D066282AD06228F4D18B5601205B0071
:10055000184314E06C2803D0712811D06928E9D120
:100560009200505821F0E8FE09E05200535EEDE79A
:100570005200535AEAE79200505821F0F8FE10BD9D
:10058000D2008A181068516821F0C7FEF7E7D20040
:100590008A181068516821F0DBFEF0E7032392000F
:1005A00050589843030002201843084BC018E6E750
:1005B000D2008A18106851681CF06CFB03230200FB
:1005C0009A431300EFE792005058D8E7000080806C
:1005D000F7B51700156801AA04000E00FFF72EFFFB
:1005E000402C05D1019B043C5A1EAA185D421540BF
:1005F0005A213E3C62426241B14289412B183B6024
:10060000D2B22B00494220F093FF04000D004F2E80
:1006100008D0532E07D128F02CFC00220100200026
:100620000DF06EF8FEBD662E06D10323022498431A
:10063000154B2043C018F5E7642E06D11CF02AFBA9
:100640000323040002209C43F2E75A2E0FD9802294
:100650000023D20512196B41002B04D1002A02DBC2
:1006600021F06AFEDEE7290021F057FEDAE70029D3
:1006700005D1064B984202D821F079FED2E7290035
:1006800021F066FECEE7C04600008080FFFFFF3FFE
:10069000F0B589B0160005AA02931C6801900F00FE
:1006A000FFF7CCFE019B0500402B06D1059B5A1E8F
:1006B000A2185C423C2314400193029A6319136010
:1006C000019B3E3B03935A425341DBB20293642F9A
:1006D00012D0662F0BD04F2F2AD12800042D00D91D
:1006E000042033002200029920F04BFF2CE0300060
:1006F00006F05CFA0600F0E7300006F057FA1CF04E
:1007000077FA029B0690079108AA9B00D318083B32
:1007100022001B680299042020F033FF039B04345D
:100720005A1E934108AA9B00D318083B1E68D4E7C1
:10073000B3070BD1104B32689A4207D123002A002D
:100740000299300021F0C5FD09B0F0BD300006F07F
:10075000C9F90600042DC0D900215A2F02D98842B8
:1007600000DAFF312A00200028F02FFB019B3E2BEE
:10077000B3D12B1FE418B0E7D4AB0200F7B50600E5
:100780000F0014001D0064280DD0662804D04F28E7
:1007900013D19400E35105E0940018000F1906F0FE
:1007A00005FA3860F7BD180006F000FA1CF020FAD0
:1007B000E4003F1938607960F4E703232B4001938C
:1007C00011D10E4B2A689A420DD1019A01004020A6
:1007D000FFF734FE230043430200FB180199280071
:1007E00021F077FDDEE7280006F07CF92200030007
:1007F0003900300020F0D8FED4E7C046D4AB020068
:10080000F8B5050010200C001F00160021F05AFE5C
:10081000054B44608460A4190760C4606B60034B9F
:100820002860AB60F8BDC0462F16020045160200D6
:10083000F7B50020214A224E12783368111D490075
:10084000CC5A5F1859880190A020C00584466405E1
:10085000640D4C431B49A4120968787807270500EA
:10086000BD43F82D1DD00125C00885402800A125D5
:100870006746ED0001327851D2B2101D4000C55AD2
:100880001F186D0558886D0D68438012001BE4D059
:100890000A4C2270019A002A02D00A4A3360116081
:1008A000FEBD6046084A5C688450002903D00122DE
:1008B0000B00002101920A000C00DEE7C62D00208B
:1008C0003C010020400100200C05000010B572B66C
:1008D00000220F4B18681A6062B6904210D10D4B7F
:1008E0000D4A1B680D48934200D010001A78027020
:1008F0005A8842805A684260002219788A4200D39E
:1009000010BD510044185918098901322181F4E7BA
:10091000400100203C01002044010020740100201F
:10092000044B054A1A600023044A1360044A1370FA
:100930007047C0463C010020149102004001002095
:10094000C62D002010B578220249022006F052FB85
:1009500010BDC04631080000421E084BFF3A10B5DA
:1009600004009A4207D8FFF7B1FF054B24114480D9
:100970001860002010BD01204042FBE740410F00FD
:1009800040010020044B1B68002B01D1034B1B6866
:10099000588800017047C046400100203C010020FB
:1009A000F7B53D4A04000D000B00914200D9130039
:1009B0008022D200D31A0193FFF788FF0122A240C0
:1009C00046680092164207D12300A0210327C133B5
:1009D000FF339B00C9055F50002703789F4206DB69
:1009E000002D01D0132B0BD92C4B1860F7BD391DEE
:1009F000490042185278D208A24243D00137EDE7AD
:100A0000009A191D32434260019A490055050A5A5D
:100A10006D0DD20AD2022A430A525205E400520F47
:100A20004118144301334C700370851C012225E0EA
:100A3000009A013BDBB2964303704660BB42F4DD93
:100A400004335B001B5A0B52EFE72F00131D5B00B2
:100A5000195A2E894905490D531E1C1D6400245A3C
:100A60006405640D8C4204D9FC88023F7C81013B03
:100A7000F3D205335B001E520132023503789A42ED
:100A8000E3DBB1E7002DD3D0019B5A050B5A520D81
:100A9000DB0ADB021343D6E7FF030000400100201E
:100AA00070B500210400FFF77BFF00210D4B186893
:100AB0000578A94200DB70BD0B1D5B00C3185A7896
:100AC000161CD208944201D00131F2E708225242AA
:100AD00032435A700123A021A340034AC9058B5019
:100AE000E9E7C0463C0100200C050000044B88608B
:100AF0000B60044B08004B600023CB607047C0467E
:100B0000D89002005D16020070B50E001049040076
:100B1000002521F012FA7368AB420AD8012B03D1E9
:100B20000C49200021F009FA0B49200021F005FAB8
:100B300070BD002D03D00949200021F0FEF9AB0063
:100B4000F31801229968200005F0FCFE0135E2E768
:100B5000B66F0300F7FB0200F9180300F4FB020074
:100B600070B50D0001281ED0002803D0022807D040
:100B7000002004E04B680E48002B00D10D4870BDEA
:100B800000260D4C6B689E4203D301206400204375
:100B9000F5E7B300EB189968022001F011F9401055
:100BA00024180136EEE74B685B001843E7E7C046C0
:100BB00048A6020040A60200A491020070B50600FB
:100BC0000D000B48002E0DD0B41CA400200021F015
:100BD00079FC084B46600360002D03D00023083CDD
:100BE000A34200D170BDE958C21891600433F7E701
:100BF000A4910200AC910200F0B5070085B00E0090
:100C000014001D2803D90025280005B0F0BD0123DC
:100C10008340324D1D4044D1314A13421FD1F82246
:100C200092051342EFD0200005F074FE2D4B426A6E
:100C30009A4205D020002C4925F020FB041E0CD040
:100C4000230031006268083300920831726838006E
:100C500003F054FD254D0028D6D1254DD4E72000C2
:100C600005F058FE204910F027FB0028CBD0736810
:100C7000626829009818FFF7A1FF07003100736828
:100C800008379A0005000831380028F082F8210062
:100C900070686368800038189A00083128F079F885
:100CA000B2E703A9100005F05BFF0025A842ABD016
:100CB0000398104D0028A7DD736800215843FFF703
:100CC0007DFF05002B003000083300930830039BA4
:100CD0007268042121F0ABF896E7C046800010004E
:100CE00020000400ED0A0000AC91020048A60200BA
:100CF00040A60200A491020030B5040085B0042A89
:100D00002DD1032540680D401FD1164B0A689A4229
:100D10001BD101AA03F076FC002802D1124801F091
:100D2000D9FF019B02982900C01AFFF747FF050071
:100D300021006B6808319A00019B08309C0009195A
:100D400028F027F8280005B030BD0A000023010074
:100D5000206805F09FFF023080000559F2E700256A
:100D6000F0E7C04654C40200F9FB0200F0B50C00E5
:100D70001100002285B01E0000920123200007F020
:100D8000EFFB184D002C1ED03568AB0703D1164B76
:100D90002A689A4217D0102021F094FB0021040009
:100DA000306801F075F9002504260390039801F0DE
:100DB000D1F9071E0AD128002100FFF7FFFE050028
:100DC000200021F0AEFB280005B0F0BDAE4205D8F2
:100DD000F100200021F094FB04007600AB001F51CD
:100DE0000135E3E7A4910200AC910200F0B58BB0AD
:100DF0000600080011001A0010AB1F78314B05AD3A
:100E000001950093052307F0DBFB9120000121F001
:100E100059FB2D4B04A91860059B476043706B6814
:100E20002A4F0370AB6804008370EB68C3702B7C9F
:100E300030003B600DF0BCF80025254B03900C20E2
:100E40001D6021F03FFB234B0600036014F0F8F80F
:100E5000B06014F0F5F8204B204A1860204B1100C8
:100E60001D70204B70601D701F4B30001D602B00EB
:100E700013F0BAFF2000049A039924F0EDFB200040
:100E80000BF0E2FF0400A84207D113F0B3FE0E4BB3
:100E90001C60164B186801F02BFD0122144B1A70D0
:100EA00014F0C8F80028FBD1124B943318603B684B
:100EB000002B04D00C4B104819681FF051FD074857
:100EC0000BB0F0BD549202000C2F0020D80100207E
:100ED000A8010020A0920200A40100201CAC020086
:100EE000C92D0020C72D0020AC01002014000020D7
:100EF000C82D0020782E00202AFC020000220D4977
:100F000010B50B78DBB2934210D10B4A1478002C49
:100F100002D001240C701370084B1B78002B07D0F3
:100F2000074A136820331360064B1A68100010BD7F
:100F30008268FBE7C72D0020C82D0020C92D0020A6
:100F4000A8010020A401002073B501A90DF030F81C
:100F5000019B06001748502B17D88020400021F035
:100F6000B1FA154C05002300943318600023019A50
:100F70009A420CD15B232800AB5401F0D7FF2B0021
:100F8000002808D1943420600C4801F0B1FCF15CD9
:100F9000E9540133ECE75A1B0133591E09789B29A8
:100FA000F9D12900064824F027FC0023943423605B
:100FB00076BDC04639FC0200782E002047FC0200B6
:100FC000CCC40200D2235B005843134AF0B5136827
:100FD000000C834206D9114C236801332360136847
:100FE000203B13601F23050001270D4E9D4314680D
:100FF000A5420BD803401A1D202A00D92022094CF3
:101000002468934204D3084B1860F0BD3770EEE7B4
:10101000E51829710133F4E7A8010020AC01002094
:10102000C92D0020A4010020B0010020F7B5060062
:10103000194D0C0028001FF00DFD310017481FF05E
:101040008FFC17481FF006FD16481FF003FDFF2315
:101050009B00E61821787F2901D0A64206D12800FE
:101060001FF0F8FC10481FF0F5FCF7BD6278A3787C
:1010700050290CD80D48475C0D48405C0193009204
:101080003B0002000B481FF06BFC0434E2E70A4807
:101090001FF066FCF9E7C04610FD02003DFD0200AE
:1010A00045FD0200CEFC0200ECFC02006172030070
:1010B0001072030066FD020089FD0200F0B51D00FC
:1010C00087B006001A4817000C001FF0C3FC290067
:1010D00018481FF045FC18481FF0BCFC17481FF0CB
:1010E000B9FCAD006519AC4204D111481FF0B2FC47
:1010F00007B0F0BD3878A278049020682378000308
:10110000400E0390E0789B06000902902088317819
:10111000C004400E0190E0789B0E0007000F009085
:10112000120907481FF01CFC043401360137DAE7C6
:1011300010FD02005DFC02008AFC0200BCFC020003
:10114000EEFC020010B50400002906D0044B8A6BA7
:1011500003600968002305F08BFB200002F02CFEE1
:101160006CA30200F0B5040087B0039202936618E6
:10117000002A06D0023A222A03D9354801F0B8FBEA
:101180000134B44229D220780EF0C2FA071EF7D1FA
:1011900023782B2B1CD10134311B200003AA25F00E
:1011A00070FB23181C0000250193B44217D3002FB5
:1011B00000D06D4201236D001D43019B9C422FD145
:1011C0002449039A244805F0E7FA0299FFF7BAFF89
:1011D0002D2BE1D101340127DEE70027DCE723785E
:1011E0001A00303A0092092A07D9202213431A0024
:1011F000613A192ADBD8573B00930399009B994227
:10120000D5D9280006F0FEFE002816D1039B5D43C9
:10121000009BED186B006B400FD40134C5E701341F
:10122000B44205D220780EF073FA0028F7D1C7E750
:10123000B442C5D1280007B0F0BD019B3A00059328
:10124000F11A05A8039B21F09DF8059C0500B4E761
:10125000E1FD020004FE02005CA40200F0B50400FF
:101260008BB00893431804920193019B9C4200D3D6
:10127000F6E020780EF04CFA071E38D123782B2B9D
:1012800037D101340590019B9C4200D3EAE0202332
:1012900022781A43692A33D10199A21C914200D8BD
:1012A000E6E062781A436E2A00D0E1E0A2781A43A1
:1012B000662A00D0DCE0E21DE51C914214D9E278F8
:1012C0001A43692A10D122791A436E2A0CD1627905
:1012D0001A43692A08D1A2791A43742A04D1E279FF
:1012E0001343792B00D10535FF26F6051BE00134A9
:1012F000BBE705902D2BCAD12C3B01340593C2E7E7
:101300006E2A2ED10199A21C914200D8B0E06278D9
:101310001A43612A00D0ABE0A27813436E2B00D0B1
:10132000A6E05D4EE51C059B002B02D080231B062A
:10133000F618A5427BD159498CE03D002B786F1CF3
:1013400018003038092834D8022E15D10A23029A01
:1013500053431B180293019BBB42EED80023049316
:101360004DE00022079202924D4A2500069200228B
:10137000002603920993E1E719F0AAFE051C012E4D
:101380000DD1069919F02EFB011C039818F0B8FF37
:1013900043490390069819F025FB0690DBE7414985
:1013A000039819F01FFB291C18F0AAFF00260390D0
:1013B000D1E7002E03D12E2B03D10126CBE7022E3D
:1013C00016D0099A1A43652A12D1019BBB4256D9FD
:1013D0006B782B2B05D1AF1C019B9F42ABD0022613
:1013E000B9E702262D2BA8D12C3BAF190793F3E7C1
:1013F000049A002A04D0202213436A2B13D13D0003
:10140000079B002B02D0029B5B420293029819F0CB
:1014100015FE011C23481CF0D1FA039919F0E2FAD9
:10142000049F061C7FE700230493E9E70135019B35
:101430009D4205D228780EF06BF90028F6D17AE7A4
:10144000019B9D4200D076E7089B002B01D1002F25
:101450001AD01549154820F0EAFF1099FFF772FEDF
:101460000023059300230393002325000493CCE776
:10147000059B002B00D15EE72500002656E7019B67
:10148000BB4200D157E769E7032302209E43084B84
:101490003043C0180BB0F0BD0000C07FC7FD020094
:1014A000CDCCCC3D00002041AAFD02005CA402008E
:1014B00000008080F0B5060087B000AF7B60F96067
:1014C000BA6000F0AFFBB06820F0BEFE3861B068D3
:1014D00020F0C0FE20F0B8FE032358433B69C0183B
:1014E00083001D007B6114352C2B2CD86B460E35E8
:1014F000ED08ED005B1B9D4600236C467B610023DD
:1015000026606360BA687B68F968200004F04EFBCF
:10151000154D00216B682000236173686B600EF02D
:1015200033FC2369061E6B6013D1A3681D687B69B9
:10153000002B04D0200020F0F4FF002E11D1280051
:10154000BD4607B0F0BD280020F0C9FF041ED6D16B
:10155000CCE73B6903339B00E3185D687B69002B94
:10156000E8D1280002F028FC782E00200122030098
:1015700030B5134085B004004510002B14D1254927
:101580001D00884210D0244988420DD0234B1500FD
:10159000984209D00323034009D1214A01689142AE
:1015A00005D120F006FF0500280005B030BD1D4A1A
:1015B00025002240062A05D0002B08D11A4B2268AC
:1015C0009A4204D101A920000CF0F2FCEBE72000C4
:1015D00005F0A0F9154B984207D1FF23DB05E01871
:1015E0000323984319F00AFDDDE7114B984202D01E
:1015F000104B984206D101AA6946200005F014FB61
:10160000019DD1E7022201A9200020F042FF00281D
:10161000CAD0F5E71CAC020040A6020048A60200B2
:10162000D4AB0200070080FFCCC4020068A5020012
:10163000AC91020054980200F7B506000F0000922A
:101640000193041E00D044683800431E98412018BE
:101650000430800020F036FF0C4B050003600C4B7B
:101660005B684360009B8360019BC360002E05D0D4
:101670003100A2000831103027F08BFB002F02D080
:101680000434A40067512800FEBDC0462893020020
:10169000782E002070B5060010200D00140020F0F8
:1016A00011FF034B466085600360C46070BDC04697
:1016B000EC920200044B88600B60044B08004B6006
:1016C0000023CB607047C046D8900200BF180200CC
:1016D000044B0B60037A0B71436808008B60002396
:1016E000CB6070478495020010B504000C2020F0F8
:1016F000E9FE034B446003600223037210BDC04641
:10170000C095020010B5043021F0F1FF004810BD73
:101710001CAC0200002803D0012808D0002005E0FE
:1017200007224B680448934300D1044870474B6834
:10173000DB085B001843F9E748A6020040A6020058
:101740000B6870B506000D00181D4968140007F0FD
:10175000B7FD002802D04368002B10D1022E08D11B
:10176000094B022C06D16968084820F059FE02F0A6
:1017700023FBAB68012C00D14360180070BD022C24
:10178000FBD100224260F8E71CAC020014A1020069
:1017900070B504000D000B7A164A9B0086B099586C
:1017A00020F0CBFB1449200020F0C7FB134B02AA0A
:1017B00002932B7A012613716B6801930493002323
:1017C000059302A820F085F8051E05D10C492000DC
:1017D00020F0B3FB06B070BD002E03D109492000F4
:1017E00020F0ABFB01222900200005F0ABF8002619
:1017F000E7E7C046FC95020077FE020084950200F0
:101800007AFE0200F4FB0200F0B513681400012216
:1018100087B00F680D000092D9080223060006F079
:101820009FFE022E12D103236868034018D101687D
:101830002A4AC968914213D12A68904206D005937A
:1018400005A9686820F026F8061E01D100253EE0B3
:10185000381D0122316807F033FD73684360EFE7FC
:10186000002100F015FC0390039800F073FC0028A1
:10187000ECD0002100F00CFC050000F06BFC0290A5
:10188000280000F067FC0600280000F063FC029BC3
:10189000002B03D0002E01D0002802D0104801F008
:1018A00027F8381D0122029907F00AFD4660DBE7A0
:1018B000A368EE009E193168002907D0042905D0DD
:1018C000381D012207F0FCFC736843600135636832
:1018D000AB42EDD8034807B0F0BDC046551B000031
:1018E00051FE02001CAC020030B5002585B001A9F4
:1018F000040001951FF0CEFFA84203D109490A4810
:1019000020F0ACF8636802A9083B636003680293A7
:1019100043680393042328C00220FFF74FF905B062
:1019200030BDC0462CFE020014A10200F7B50C0029
:1019300015001B280DD000231F2808D1081D0022E8
:10194000290007F0BDFC2C4B002800D12B4B1800C0
:10195000FEBD03222B001340114225D128492268E5
:101960008A4221D1002BF1D1296891421ED10093E6
:101970000193694620001FF08DFF01A90700280090
:101980001FF088FF0600002F31D00028DED031681C
:10199000386805F055F80028D8D07168786805F0E7
:1019A0004FF80028E5D1D1E7002BCFD1154B2A689D
:1019B0009A42CBD16A686368534007229343C5D1EA
:1019C000019301A920001FF065FF061E01D10A4BFB
:1019D000BDE7281D0022316807F072FC0028B5D051
:1019E0004168706805F02CF80028EAD1AEE7024B98
:1019F0000028ABD1ABE7C04648A6020040A60200D3
:101A00004496020008960200F7B50B681C4A0400D1
:101A10000D00934203D05A681A4920F04FFB1A492F
:101A2000200020F08AFA00230127019301A9280051
:101A30001FF030FF061E0CD11449200020F07DFA63
:101A40002B680F4A934203D01149200020F075FA09
:101A5000F7BD002F03D10F49200020F06EFA0122BC
:101A60003168200004F06EFF0B49200020F065FA79
:101A700001227168200004F065FF0027D6E7C04608
:101A8000089602004BFE02004FFE02002C4F03009E
:101A9000F9180300F4FB0200A87A030010B5040053
:101AA0000C2020F00FFD034B446003600023037201
:101AB00010BDC046C095020010B504000C2020F0F7
:101AC00001FD034B446003600123037210BDC04657
:101AD000C095020010B5043000220C0007F0F0FBA6
:101AE000002805D12100034820F09AFC02F064F997
:101AF000406810BD14A1020010B5024B08C021F0CF
:101B0000DBFD10BD08960200F8B50E0007000021AD
:101B1000706800F0BDFA0E4C0500022F00D9B468C1
:101B2000706805F0F9F8002809D11FF0FCFE0600E6
:101B3000280000F00FFB011E03D13000F8BD40105B
:101B4000F3E7331D0122180007F0BAFB4460EFE70A
:101B50001CAC0200F0B5070089B000201E000D008B
:101B600001921FF0E0FE0E4B040007609F4203D17C
:101B70000423027913430371019B2B430DD0336877
:101B8000AA00B218019905A80394049321F0A2FDBC
:101B9000681C05AA03A9FFF737FE200009B0F0BDB5
:101BA0004496020010B50C00002A03D11FF0FEFE7F
:101BB0000A480EE0042A0DD10430002207F080FB11
:101BC000002805D12100064820F02AFC02F0F4F894
:101BD000406810BD1FF0E0FEEAE7C0461CAC020002
:101BE00014A10200014BD8607047C046782E002037
:101BF000034B82B0D86801ABC01A02B07047C04630
:101C0000782E0020014B18617047C046782E0020C6
:101C100010B54E21024820F003FC02F0CDF8C0467A
:101C2000F4A2020007B5054A01ABD1681269CB1ACC
:101C30009A4201D8FFF7ECFF07BDC046782E00207E
:101C400070B509F0EDFB0F4C0F4B0025A3620F4B55
:101C5000E562636323002563A83303210C481D60FC
:101C6000A564FFF749FF0B4E01213000FFF744FF49
:101C70003000094A09491FF08FFE26606660E5655D
:101C800070BDC046782E002050A10200A491020031
:101C9000B02E0020C42E0020760F0000860F00001A
:101CA00070B50624134EC3001C4373680022050060
:101CB0002100181D07F004FB021E18D1F06D00284A
:101CC00007D00430210007F0FBFA002801D040685B
:101CD00070BD00222100084807F0F2FA021E06D16A
:101CE0002A000649064804F057FD02F065F85068DE
:101CF000EEE7C046782E00206C9A0200C5FF020075
:101D000004A202000A4B10B5040018685B689842F0
:101D10000AD00621E30019430430002207F0D0FA6C
:101D2000002801D0406810BD2000FFF7B9FFFAE796
:101D3000782E0020074B10B5D86D002801D1064839
:101D400010BD04300022054907F0BAFA0028F6D089
:101D50004068F5E7782E002034990200DE0E00007E
:101D60000A00C100062010B5024B014318681FF09D
:101D700013FE10BD782E0020062110B5034BC000C5
:101D8000014318681FF012FE10BDC046782E0020D7
:101D90000A00C100062010B5024B014358681FF02D
:101DA000FBFD10BD782E0020062110B5034BC000AE
:101DB000014358681FF0FAFD10BDC046782E002080
:101DC00037B505000C00062806D1080004F0C8FF4E
:101DD00000280DD02C483EBDCB071BD54B10042846
:101DE00016D817F091FF03154E4E0700002BF1D0C7
:101DF0002648F0E7C0221206934204D18020C00595
:101E000020F09AFAE7E75B425B0001201843E2E723
:101E1000DB43F9E702281AD11D4B0B40062B08D0F3
:101E20008B0714D10A681B4B92699A420FD14868FC
:101E300002E0C80822F018FE002806D101A92000FF
:101E40000BF098FC019909F0D9FA4300DDE7200076
:101E500004F060FD4369002B0DD10F4BAD00200055
:101E6000ED5820F0FFFA2A0003000C490C4804F05A
:101E700093FC01F0A1FF2100280098470028AAD177
:101E8000EBE70800A7E7C04640A6020048A602000C
:101E9000070080FF4DE5000058CE0200510003000E
:101EA000E4A30200F7B50400019116001F0004F03E
:101EB00031FD0569002D09D1200020F0D3FA064933
:101EC0000200064804F068FC01F076FF3B00320097
:101ED00001992000A847FEBD58FF0200E4A30200BC
:101EE000F8B50E0015001C00930714D113681E4AA4
:101EF000934202D16B682360F8BD1C4A934207D11C
:101F0000002802D004F006FD06006B6848C4F3E721
:101F1000174A934201D12560EEE75A680221170063
:101F20008F4314498F4202D013498A42F3D10028CB
:101F300017D1124A93420BD0114A934208D0114A4A
:101F4000934205D0104A934202D0104A934208D1DE
:101F50000C2020F0B7FA0E4B4660036085602060CD
:101F6000CAE725606060C7E7A4CD020068CD020023
:101F70001CCE0200450200001A0200006493020019
:101F8000A0930200DC930200189402005494020013
:101F900088960200F8B500231360536006000D0018
:101FA000140004F0B7FCF92307005B009D4205D143
:101FB000836A002B02D00F4B48C4F8BDFB69002B8D
:101FC00004D02200290030009847F6E7B86B0028BB
:101FD000F3D00621ED00294304301A0007F070F910
:101FE0000028EAD04268230039003000FFF778FF6C
:101FF000E3E7C046FC99020070B5160004000D002E
:10200000FFF7C8FF3368002B15D10B4EA3070BD188
:102010000A4B22689A4207D12B00626808493000B7
:1020200004F0BAFB01F0C8FE200020F01BFA2B00E0
:1020300002000449F3E770BD349F02001CCE020089
:10204000DEFF02000500030073B504000D0016005A
:1020500004F060FCC369002B09D0042201960092B1
:1020600029006A4620009847009B002B0AD02000D8
:1020700020F0F8F92B0002000349044804F08CFB1F
:1020800001F09AFE73BDC04605000300349F0200B4
:1020900073B504000D0004F03DFC174B426A0600C6
:1020A0009A4226D0002D03D1102020F00BFA050013
:1020B000736A002B12D1E6216A46FF312000FFF738
:1020C00069FF009B002B0FD1200020F0CBF90B49BA
:1020D00002000B4804F060FB01F06EFE29002000B6
:1020E00098470028E7D076BD29006846FEF79AF9A0
:1020F000F9E72000F7E7C0469124020074FF0200D0
:10210000E4A3020037B5040004F004FC856A002D46
:1021100002D02000A8473EBDF9216A4649002000B0
:10212000FFF738FF009B002B05D06A4629002800E6
:102130001FF058FCEFE7200020F094F9034902005B
:10214000034804F029FB01F037FEC046A6FF020059
:10215000E4A3020030B505008FB0FFF763FD28004F
:1021600004F0D8FB846A002C05D02800A0470400A6
:1021700020000FB030BDF9216A4649002800FFF762
:1021800009FF009B002B16D002A801F0EFFD0028EC
:1021900007D16A4601001FF025FC040001F004FE8F
:1021A000E6E7039B084918680FF086F80028DFD19E
:1021B000039801F001FE280020F054F903490200C1
:1021C000034804F0E9FAF4E730A30200A6FF020096
:1021D000E4A30200F0B513688FB00793002800D085
:1021E00073E00400131D0393FF220B00090A134040
:1021F000114001934B000693069A019B05919B1891
:10220000039A9B00D2580492039AD3185F68381E31
:1022100009D00020BB0706D1944B3A689A4202D1FC
:1022200038001FF0B6FB059B1818049B4600002BD6
:1022300050D1019B581C83199800009320F042F95B
:1022400026000500002C01D001260460019BB0008F
:102250009A002818039926F09CFD019B9B19029374
:10226000029B9800059B2818DA00019B9900039BAC
:10227000591826F08EFD029A069B944663440193FA
:10228000002F12D003243C4000D0A9E0774B3A68DD
:102290009A4200D0A4E038001FF093FB032306000D
:1022A000009373689C4200D27DE0019B029A0299E0
:1022B0009A1A52082B000798FFF7F4FD0400280033
:1022C00020F02FF920000FB0F0BD13000833039366
:1022D000546889E7049B9B072FD1049B644A1B68C1
:1022E000934202D0634A934227D10AAA09A90498CB
:1022F00004F09AFC099B581C019BC0188319980094
:10230000009320F0DFF826000500002C01D0012604
:102310000460019BB0009A000399281826F039FD4B
:10232000019B0A999819099B80009A00281826F0A9
:1023300030FD019B099A9B1890E7019B181D83199A
:102340009800009320F0BEF826000500002C01D074
:1023500001260460019BB0009A000399281826F01A
:1023600018FD019B0AA99B1904980293FFF790FEA0
:10237000029B04909C000498FFF7ECFE061E00D11F
:102380006EE7009B029A934207D8D900280020F0FC
:10239000B7F80500009B5B000093029B2E510133B0
:1023A00002930434E7E7B368E700D859002815D052
:1023B000042813D0009B184205D12F4B02689A4283
:1023C00001D123F054FB019B019A9B00E85002329B
:1023D0000192B268EB18D7197A685A60013460E745
:1023E0000AAA26493800FFF707FE00210AAA0800BA
:1023F0001FF0F8FA0021FFF74BFE019B03909E00AF
:102400000398FFF7A7FE041E00D14EE7019B009A38
:1024100001339A420BD853000093042B01D20423BA
:102420000093009B2800990020F06AF80500032320
:102430001C4207D1104B22689A4203D1200023F09E
:1024400016FB0400E6210AAAFF313800FFF7D4FD8D
:102450000AAA002101200C941FF0C4FA019BAC5180
:1024600002330193AB1958600836C9E70896020099
:10247000AC91020054980200CCC402006B02000030
:1024800070B50C0086B0160083071CD10368204A83
:10249000934202D01F4A934215D102AA01A904F027
:1024A000C3FB019BA3422CD31BD80023029DA00099
:1024B000A34201D106B070BD9900421A043AAA584D
:1024C00001337250F4E702A9FFF7E2FD0023050093
:1024D0000193019B2800A34206D3FFF73BFE00288F
:1024E000E8D022000C490EE0FFF734FE002808D0A7
:1024F000019A0A49A31A5B189B0001329851019274
:10250000E7E7019A0649074804F046F901F054FC50
:10251000AC9102005498020092000300FFFFFF3FBD
:102520006F0003005CA40200F7B5FF240E00090A47
:10253000264015000C40830731D10368384A934286
:1025400002D0384A93422AD101AA694604F06CFBB2
:102550000098331983425BD883009C46002301997D
:102560009A00A3420FD1B400801B0919C01AAD18FC
:102570001FF0A0FB019B28601C19002301360133CA
:102580009E4207D1F7BD6746BF1A043FCF590133BA
:10259000AF50E5E79A0051426158A950EFE700219A
:1025A000FFF776FD002307000093009BB34218D38A
:1025B000002108001FF07EFB06003800FFF7CAFD6F
:1025C000011E1BD1B168A14222D3A3008A00EB18DF
:1025D0001E60AA18091B9D4214D130001FF086FB13
:1025E000D0E73800FFF7B6FD002811D0009AB31AE3
:1025F0001B199B00013258510092D6E7300000F0C1
:102600009FFFDAE7F468D01A2058043B1860E2E72D
:10261000009A0549054804F0BFF801F0CDFBC0461B
:10262000AC910200549802006F0003005CA4020009
:10263000F0B591B01D0006000C00170004F06AF917
:10264000334B984207D12B003A00210030000FF0A5
:10265000C5FE11B0F0BD826A2E4B002A08D09C4204
:1026600030D13000904728600028F2D00120F0E7F8
:102670009C4227D1F92101AA49003000FFF78AFCCA
:10268000019B002B0DD1D72101AA49003000FFF793
:10269000B3FC039401AA002101201FF0A3F92860D4
:1026A000E4E704A801F062FB002807D101AA0100B9
:1026B0001FF098F9286001F077FBD7E7059B2B60A6
:1026C0000220C6E7002CDED1380004F023F91249BD
:1026D0000EF0F2FD01AA00280ED010493000FFF7DD
:1026E00059FC019B002B10D001AA210020001FF0F3
:1026F00079F928602000ACE709493000FFF74AFC6F
:10270000019B002B01D00397C4E72F60D8E7C04698
:10271000D4D402001CAC020024A002001902000064
:10272000CD02000010B5040004F07CF8002808D0A9
:10273000002320001A001900FFF7B4FB040020005A
:1027400010BD20001FF077FE0028F8D10249034891
:102750001FF06DFEF2E7C04627000300E4A302006D
:102760007FB5C30006201843054B01900491052056
:1027700001A902930393059203F018FE07B000BD70
:102780001CAC02001423F0B58DB000AFFA180500A0
:102790000C00FFF7FFFBBB69002B06D022002C4981
:1027A0002C4803F0F9FF01F007FB786900284CD1B1
:1027B00028001FF01EFE0028F0D01423F821FA187C
:1027C00028004900FFF7E6FB10227869B9180BF0E2
:1027D000EFFBB860200022F04CF96A463E69B96808
:1027E000731C7B60C318FB600E33DB08DB00D31A5D
:1027F0009D466D463200280026F0CBFA2E23AB55BD
:102800007B682000EB18BB6022F038F9060020003E
:1028100022F02FF931000200B86826F0BAFAF96800
:10282000280008F03BFEC300062018430A4B102284
:102830003B627B62094BBA18BB620123FB620B331C
:10284000F861D118052003F0B1FDBD460DB0F0BD13
:1028500090FF020060A002001CAC020048A602002B
:10286000F0B5174C0F00616895B003912168060020
:1028700008A804916260236001F078FA051E06D072
:10288000039B09986360049B236001F095FA336809
:102890003A00310005A801930EF086FE2B002A00B5
:1028A000019905A808F06AFB1FF08DF8050001F0FA
:1028B0007BFA2800039B6360049B236015B0F0BD86
:1028C000782E002010B5040002F03AF8031E0548E7
:1028D00002D005491FF0C2F82200044903F05CFF52
:1028E00001F06AFAC8A10200B6FE0200DFFE020093
:1028F000010010B501481FF0B1F8C0465CA4020009
:10290000F0B58BB004900F000392202803D19142C0
:102910000FD0AF4EBFE0049B1B2B01D01E2B0DD15F
:102920000399380004F08CF8049B002803D01B2B7B
:10293000EFD1A84EAFE01B2BFBD1EAE7049B212B84
:102940003FD1039803F06EFF002806D003993800AA
:102950001FF077FD0028ECD1DBE70324039B1C402C
:1029600005D1039A9C4B126805929A4223D0049B8E
:102970009A4A9B0038009C581FF074FD050003988C
:102980001FF070FD2B00009022009549954803F040
:1029900003FF47E1039AA300D3189D68280003F0C2
:1029A00041FF002800D158E1290038001FF049FDFF
:1029B0000028BED10134039B5B680593A342E9D88C
:1029C000A7E70126314200D116E1039B4D101E40BE
:1029D00000D1E7E05C10049B1D2BC8D8180017F04D
:1029E0009DF91E0028002A002D0045004C004E00D5
:1029F00050005D0066007B008300B4001E002800CC
:102A00002A002D0045004C004E0050005D0066007D
:102A10007B008300CC00D000C6FFD400D800254343
:102A20002E0070000300734000D5B6E00126064377
:102A300031E06540F4E72C402600F2E7002C02DA92
:102A40006948FFF755FF1F2C08DC684B2341AB4258
:102A500004DBC0231B062341AB4205DDE917280038
:102A60001FF05BFC07004BE0A540D9E7002CE7DB3B
:102A70001F2C00DD1F242541D2E72E19D1E72E1B84
:102A8000CFE72100280005F0BDFA0028E6D1012695
:102A900065436D002E4330000BB0F0BD002C00D11B
:102AA000DDE0210028001FF042FE0600B9E7002CFF
:102AB00000D1D4E0280018F0C1FA051C200018F05D
:102AC000BDFA011C281C17F0B5FD0323022698430C
:102AD000474B0643F618DEE7002C00D1BFE021008B
:102AE00028001FF014FEE0E72F00002C2ADA28004F
:102AF00018F0A4FA0323022798433D4B0743FF181D
:102B0000380003F007FF8369002B00D12FE7039AF9
:102B100039000498984756E001231C4206D039003A
:102B2000300005F06FFA002898D17E43012C00D1C7
:102B300077E739003800641005F064FA002800D007
:102B40008CE77F43002CE7D16BE7002C00D186E0B7
:102B500000210220FEF732F82100060028001FF0B5
:102B6000E6FD012740003843B060210028001FF037
:102B7000CEFDB8400743F7608DE7A54200DAD8E6FE
:102B8000C7E6A54200DDD4E6C3E6A54200DCD0E6F8
:102B9000BFE6A54200DBCCE6BBE630001FF0CCFB75
:102BA000060078E70323039A1340022B24D1114B2C
:102BB0001340062B20D0280018F040FA039A011C7D
:102BC000049804F03BFB061E00D064E7CFE6C04645
:102BD00040A6020048A60200AC910200D0CC020040
:102BE00022FF0200E4A302000DFF0200FFFFFF3FEF
:102BF00000008080070080FF049B1F2B00D07FE730
:102C0000039803F087FE83690400002B0CD1636AEC
:102C1000002B11D103981FF025FC13490200134823
:102C200003F0BAFD01F0C8F83A00039904989847F8
:102C3000061E00D02FE7EAE706A90398FFF728FA57
:102C400004002000FFF786FA002800D161E6390071
:102C500003F0F6FE0028F4D06BE6039587E60449FE
:102C600004481EF0FBFEC04674FF0200E4A302000D
:102C700047FF020098A40200010010B501481EF0B1
:102C8000EDFEC046E4A30200F8B504000D001700F5
:102C90001E00002908D0186803F03CFE63688342D8
:102CA00002D00548FFF7E8FF33003A002900A0688A
:102CB000FFF7F8F8F8BDC0469EFE02000121400073
:102CC000014310B502481FF0ABFB01F075F8C04698
:102CD0007CA20200010010B501481EF0BFFEC046F4
:102CE00040A2020070B505000C200C001FF0EAFBAA
:102CF000024B45600360846070BDC046C49602000C
:102D000010B5040008001EF00AFF0300002C03D0D9
:102D1000012C06D0002003E00348002B00DC034810
:102D200010BD40002043FBE748A6020040A6020079
:102D300043684B6083688B60C3680800CB60014BBD
:102D40000B6070473C97020030B5040087B00D005F
:102D50000020042A25D120001EF0E1FEAB0722D17D
:102D6000184B2A689A421ED103AA290001F04AFC96
:102D700010201FF0A7FB144BE2680360039B6168FF
:102D800053435B184360049B6168019353435B1892
:102D9000059983604A43C260002902DAE2689B1AFF
:102DA000836007B030BD002301002A00206803F0D3
:102DB00071FFE36858436368C0180123400018435B
:102DC000EFE7C04654C4020000970200F0B50E00C1
:102DD000002785B0110003901D000122032330005D
:102DE000009705F0BDFB10201FF06CFB039B040057
:102DF000036001234760C36028689E4205D103F049
:102E000071FEA060200005B0F0BD03F06BFE6060B5
:102E1000686803F067FEA060032EF3D1A86803F092
:102E200061FEE0600028EDD10148FFF761FDC0467A
:102E3000BA00030070B50D004A688B6808490400A9
:102E40001FF03CF9EA68012A04D1064920001FF06E
:102E500074F870BD044920001FF030F9F9E7C0464E
:102E6000C4000300F9180300D1000300136810B573
:102E70001400002B05D1A42904D140681FF05CFA8E
:102E8000206010BDB9235B00994201D18068F5E74D
:102E9000024B9942F5D1C068F0E7C046BF0200007E
:102EA0000139C9B2054B401880301970044A0378C3
:102EB0001370044AD25C044B1A707047CB2D00206B
:102EC000CC2D002096120300CA2D00200131C9B27A
:102ED000054B401880301970044A03781370044A77
:102EE000D25C044B1A707047CB2D0020CC2D0020F3
:102EF00096120300CA2D0020074B984206D9074BB3
:102F00001818074B4118C91808787047054B18184E
:102F10004118054BF7E7C046A4920000D710030004
:102F20005B6DFFFFEB0003000083FFFF0300202227
:102F3000F0B57F254F265F27803304001A7089B0D3
:102F400003007F3019780A002A406F2A26D90A0028
:102F50003A401900013381310A709842F2D17F2240
:102F6000B64B1A702300643AFF331A70E4320292AF
:102F7000531CB348DBB204930370E31880331B780F
:102F8000B0490B705B2B0ED19B22029B0A70013360
:102F9000DBB20370E254012009B0F0BD5F2AD8D93A
:102FA0000A003240D5E72E2B13D10232D2B2027082
:102FB000A21880321278A1480270A348825C0120D6
:102FC000024206D1029A0B701218D2B20292A35496
:102FD000CEE10220994A13709B4AD25C104000D087
:102FE000A1E0002A15D19648203203780A70E31830
:102FF00080331A70029B0133DBB202930370782B8B
:1030000001D8E254B4E19B23029AA354049B0B70B1
:10301000C1E716007F2552B2AE430E70002A03DBD3
:103020008A4B8B4A1A60B7E7413B8A4ADBB28A492E
:10303000D25CCB5C120213430393039B0021013348
:103040009BB218000393FFF757FF0306F5D5012342
:1030500000260127794D2B7039000398FFF74CFFAC
:103060007B1CDBB2019328285FD1002E00D02F708B
:103070002D780135EDB229000398FFF73DFF6B1C59
:10308000DBB2292854D17F26069306990398FFF7CF
:1030900033FF069B30400133DBB23D284AD1002686
:1030A000684B049A1870664B1A70644B019A1A7038
:1030B000049B0593059B0199E31880331B780398C3
:1030C0000793FFF719FF079B9842B6D1019B013385
:1030D000DBB20193AB422FD1002E02D0584B059AA0
:1030E0001A70049D013FFFB2544B390003981F70C2
:1030F000FFF702FF534E030600D509E1504B7F2135
:103100001870514B1B5C1A005BB28A433270002B63
:1031100018DA4B4B013DEDB21D70631980331B78FB
:103120009842DFD089E74D4B86E70126019F93E760
:103130001D00A0E70693A8E7059B01260133DBB23B
:103140000593B7E7307020281BD0232825D02E28E0
:103150002CD0262832D040284ED05E2856D02B289E
:103160005CD03A2800D02EE1202629002000FFF76D
:1031700097FE344A137833401370B3D0304B1D7828
:10318000F3E729002000FFF78BFE0023F356002B06
:1031900000DA52E72A4B1D78A4E729002000FFF748
:1031A0007FFE402233781342F4D146E72900200005
:1031B000FFF776FE33781B07ECD43EE729002000AA
:1031C000FFF76EFE1022337813403370E2D11C4BB0
:1031D0001B78E118803109783170482900D02CE73C
:1031E000013B1749DBB20B70E31880331B78934324
:1031F000432B00D021E7CDE729002000FFF750FE48
:103200000422337813403370C4D116E7290020001C
:10321000FFF746FE33789B06BCD40EE7084B013D12
:10322000EDB21D70651980352B78452BB2D0102278
:103230009343492B00D000E7ACE7C046CC2D0020DB
:10324000CB2D0020CA2D0020961203001400002070
:10325000D70003001C13030002130300A592000013
:103260006B1C924ADBB21370E31880331B789049D1
:103270000B70452B36D1A81CC0B2231880331B78A5
:103280008C4E33708C4EF656002E02DB874B1D7829
:103290003FE010700B70522BF8D0532BF6D0442B1C
:1032A000F4D04C2B08D10335EDB21570651980357B
:1032B0002B78592BEAD0C0E6462B00D0BDE6EB1C9C
:1032C000DBB21370E31880331B780B70552B00D0E2
:1032D000B3E60435EDB21570651980352B784C2BAB
:1032E000D4D0AAE6492B00D0A7E6AB1CDBB2137002
:1032F000E31880331B780B704E2B00D09DE603350E
:10330000EDB21570651980352B78472BBED094E649
:10331000059D019B03980133DBB20193019A654B34
:1033200011001A70FFF7E8FD019B069A5F4F934268
:1033300020D100257F272E0001990398FFF7DCFD9F
:1033400003003B403D2B04D0029A0132D2B20292DC
:10335000A354019A0132D2B2010600D4A2E0002E99
:1033600002D0544A01991170514A1370059B04937D
:10337000049AFDE5504B7F211B5C4D4E1A005BB259
:103380008A4338703270002B08DA0135EDB26319C8
:1033900080331B783D708342BBD04EE630702028CE
:1033A00016D023281ED02E2826D026282DD04028FF
:1033B00048D05E2851D02B2858D020263A2864D0F7
:1033C000252800D14CE73D4B3D4A00201A60E3E53B
:1033D00029002000FFF77AFD0023F356002B00DBC5
:1033E00054E72AE629002000FFF770FD40223378D9
:1033F000134200D04AE720E629002000FFF766FDCF
:1034000033781B0700D541E717E629002000FFF7B6
:103410005DFD102233781340337000D036E73B78DF
:10342000E118803109783170482900D005E6013370
:10343000DBB23B70E31880331B789343432B00D0FF
:10344000FBE523E729002000FFF740FD0422337845
:103450001340337000D019E7EFE529002000FFF793
:1034600035FD33789B0600D510E7E6E50135EDB272
:103470003D70651980352B78452B00D106E7102269
:103480009343492B00D0D8E500E729002000FFF73F
:103490001DFD074A13783340137000D139E7034B01
:1034A0001D78F2E70192012646E7C046CB2D0020A9
:1034B000CA2D0020CC2D00209612030014000020FD
:1034C000E1000300002803D0012807D0002004E019
:1034D0008B680448002B00D1034870478B685B0061
:1034E0001843FAE748A6020040A60200044B886091
:1034F0000B60044B08004B600023CB607047C04654
:10350000D89002003F1B020000238168F0B5CA0F6B
:10351000094C521852100E199A4201DC0748F0BDAE
:10352000C568F11A9C0089002C196D582768256020
:10353000C46801336750EFE7FFFFFF3F1CAC020098
:1035400070B583680D00416804008B4212D3C90036
:10355000C0681EF0D5FF63680A495A00A36862601C
:10356000D21A013352189B00E0609200C01800216B
:1035700025F02BFCA368E268591C9B00A16002485F
:103580009D5070BDFFFFFF3F1CAC0200F8B5070067
:1035900016004C10836812D5E41810D500240D4D88
:1035A00038002900FFF7CCFFBB68591E9B00FA6862
:1035B000181F8C4207DBA4002800A650F8BD9C42CF
:1035C000EDD91C00EBE7D318083B1B6801391350F9
:1035D0000300ECE71CAC020070B500250400856018
:1035E0001021C0681EF08CFF04232900E060636096
:1035F000102225F0EAFB014870BDC0461CAC020059
:1036000030B50C0085B0104B02AD04310093013889
:103610000223019504F0D4FF23680C4C996801291A
:103620000FD9D8680A4B029AC91889004118A242DA
:1036300000D100222D79074B002D00D1064B1EF042
:103640008CFA200005B030BD789702001CAC020057
:10365000FFFFFF3F40A6020048A6020070B50C68BD
:103660000B00A1680200002903D1194919481EF076
:10367000F5F92068012A27D05A68002303F00AFBD5
:10368000E168A26886008B19013A1D680436A260C1
:10369000121A92008919180025F084FB0021A368F2
:1036A000E0689A001150616804290BD95B009942C7
:1036B00008D949088900E0681EF022FF6368E060CD
:1036C0005B086360280070BD01225242D5E7C04606
:1036D00036130300D8A0020007B500900191022024
:1036E00069461EF0A2FA694601900220FFF7B6FF74
:1036F00000480EBD1CAC020070B50E000D4905005F
:1037000000241EF01AFCB368A34204D828000A491A
:103710001EF013FC70BD002C03D0084928001EF0D9
:103720000CFCF168A30001225958280003F00AF9A3
:103730000134E8E764160300EB4D0300F4FB0200DC
:1037400070B5032604000D000E4029D1174B0A68FE
:103750009A4225D183688A6899184368994210D99A
:1037600004318900C0681EF0CBFEAA68A368E0603F
:103770009B181A1D9B006260C0181022310025F0B2
:1037800024FBA368E9689800E3681818AB689A00FE
:1037900025F0FFFAAB68A268D318A360044870BD97
:1037A000290020001EF04AFAF8E7C04654980200AB
:1037B0001CAC02000B4B70B5050003600C00080048
:1037C000042900D204206860AC6080001EF07AFEFC
:1037D0006A68E860121BA40092000019002125F01D
:1037E000F4FA70BD549802007FB50D00160012283F
:1037F0003ED005D8052819D007283FD0002434E052
:103800000300193B042BF9D893070DD1284B1268FC
:103810009A4209D1B36800938A68F368C96800F0D6
:103820006DFF244C002820D1234C1EE003230024EC
:103830001340A34219D11C001D4A3368934214D18E
:103840008B68B26898181EF012FA0400AB68E96839
:103850009A00C06825F09DFAA868E36880001818EF
:10386000B368F1689A0025F094FA200004B070BDA6
:1038700011002800FFF764FF2C00F6E703A91000F1
:1038800003F06EF90024A042EFD0039BA34200DABC
:103890000394AB68039858431EF0E9F9C368040029
:1038A0000093AA68039B0421E8681EF0C0FADCE7D5
:1038B0005498020048A6020040A60200F0B5032773
:1038C00004008BB00E0010000F40002A33D1002FEF
:1038D0002AD1654B0A689A4226D104AAA06800F052
:1038E00091FE002802D16148FFF7F4F90599049B85
:1038F000A268E0685D1A521A9B0089004118920084
:10390000C01825F04FFAA368AA00E818E368800001
:1039100018185242390025F058FAA3685D19A560BD
:10392000534D28000BB0F0BD07A90220079408965C
:10393000FFF794FEF4E7042A2CD1A068002F1FD1D2
:10394000494B0A689A421BD107AA00F05BFE002887
:1039500006D107AAE168A0681EF07CFA0500E0E73E
:10396000079B0898C01A1EF082F98368E1689A00E4
:10397000079B05009B00C918C06825F00AFAD0E72C
:10398000002301003200206803F084F9E36880001E
:10399000C558C6E7364D002F60D1334B0A689A42AE
:1039A0005CD103AA02A903F03FF907AA3100A0687D
:1039B00000F028FE002896D0079B029A08999E18CE
:1039C0000191761AE068002E27DDA368F11863687C
:1039D000994206D989001EF093FDA368E0609B1907
:1039E0006360029A079BA1689B18F21A5218089903
:1039F000E0689B00890041189200C01825F0D2F9B8
:103A0000029B03999A00079B9800E368181825F019
:103A1000C9F9A3689E19A66083E79B000399C018A3
:103A2000920025F0B6F90899A268E368521A890055
:103A3000019359180798029B9200C018019B8000BF
:103A4000181825F0AFF9A368B200F018E3688000F9
:103A500052421818390025F0B8F9DAE702003100AF
:103A600020001EF045F95CE754C402004B1303002C
:103A70001CAC020030B507240278084DA2431400A4
:103A80000222224302707F22039C41602240D40024
:103A9000028883602A402243028030BD07FCFFFF7A
:103AA00010B50B00072401782340A14319437F235D
:103AB000017004990A4C0B40D900038842602340EE
:103AC0000B430380039B04685905064BC90A234036
:103AD0000B430360029B8360059BC36010BDC0461F
:103AE00007FCFFFFFF03E0FF0023F0B52F4E93B06C
:103AF000050006A8140033600191012700F036F993
:103B00002740031E35D1E2062DD56A68A968112029
:103B100022F06DF905002E6829000125019A03A8FD
:103B20000DF042FDA3082B400022310003A807F04E
:103B300025FA0400032008F075F820001DF043FF6B
:103B40000120404208F06EF82C0000F02DF9002F03
:103B500024D02900164812F053F93C0001211448E2
:103B600012F04EF91AE0A306D5D5280021F0FAFD8F
:103B7000D0E70120404208F055F8002F03D0012182
:103B80000B4812F03DF9079802F0C4FE09490DF008
:103B900093FB041E05D03468002FDFD1200013B042
:103BA000F0BD0799044802F0F1FEF5E7B4010020EA
:103BB0004A130300A8A30200489D020010B586B076
:103BC000202102A8802420F05DFE64001E4823F01E
:103BD00034FB00231D48039323F02FFB12F0F8F869
:103BE0000128F3D002280BD1194823F026FB02A8A4
:103BF00020F06AFE01220020164B1A7006B010BD9C
:103C0000032802D100230393E8E7042804D0C1B2BB
:103C100002A820F097FEE1E70F4823F00EFB039B7C
:103C20000193002B08D10A4823F007FB02A820F0DB
:103C30004BFE80204000E1E71122012102A8FFF79E
:103C400053FF2042C5D0D9E704140300EF7A0300E4
:103C500042FD0200D80000201F14030030B587B0D9
:103C6000202102A8802520F00DFE6D00374823F0AA
:103C7000E4FA374823F0E1FA0024364902A8039415
:103C800022F04AFD01280AD1334823F0D6FA02A8CF
:103C900020F01AFE2000314B1C7007B030BD022806
:103CA00003D12D4823F0C9FAE0E7032801D12A48BF
:103CB000E0E7042808D1284823F0BFFA02A820F042
:103CC00003FE80204000E8E7052827D1244823F0A0
:103CD000B4FA039412F07CF86B46C1B2DC1D21707B
:103CE0000329E4D004290AD11B4823F0A6FA0121B4
:103CF000162202A8FFF7F8FE2842BDD0CDE702A8A1
:103D000020F020FE23780D2B03D1164823F095FADE
:103D1000E0E70121200012F073F8DBE7039B002BA2
:103D2000AAD002A820F0FCFD07F0C0FF00280BD0AD
:103D30000A2102A820F006FE0B4902A822F0ECFCA2
:103D40000328B4D00428ECD10021D1E74C130300A0
:103D50009D130300C313030042FD0200D80000209E
:103D6000C8130300F8130300FF130300C4600561C8
:103D7000466187614146C1614946016251464162DF
:103D8000594681626946C1627146816000490847AF
:103D9000993D00000020C046024B9A68026098607E
:103DA00000207047782E0020024B9A6812689A60B3
:103DB0007047C046782E00200E4A9368002B01D130
:103DC00023F0ABF8196858609160181CC468056945
:103DD00046698769C1698846016A8946416A8A4697
:103DE000816A8B46C16A8D4681688E460120704784
:103DF000FEE7C046782E002010B50400FDF7F8FE5F
:103E0000074B02001B69074907481EF057F901F0EC
:103E10008FF8012C01D101F0ADF8044810BDC04667
:103E2000782E002022140300489D02001CAC0200E2
:103E300010B502F057FE07F0F5FE014810BDC04670
:103E40001CAC020010B500F071FD014810BDC04669
:103E50001CAC020010B500F05FFD014810BDC0466B
:103E60001CAC020010B586B0040005AB04AA03A97F
:103E700002A807F083FB059B029A0193049B064965
:103E800000930648039B1EF019F9012C01D107F09D
:103E9000B1FB034806B010BD37140300489D020073
:103EA0001CAC020010B5084C002805D1A8342368CA
:103EB00001305B00184310BD086802F013FEA834FF
:103EC00020600248F7E7C046782E00201CAC0200B4
:103ED000014B58687047C046782E0020014B186887
:103EE0007047C046782E0020F0B5194E87B0336871
:103EF000050000200C0001931DF015FD30600090BE
:103F000020681DF060FD019B07003360114E022DFB
:103F100003D0A06802F0FEFC0600210063680831AF
:103F2000A81E0393FCF74AFE009B04900593002211
:103F300003AB03213000FDF7B5FF074B04009F42A0
:103F400003D00100380021F068FE200007B0F0BD6A
:103F5000782E00201CCE02001CAC02001FB5694662
:103F6000FEF796F804002000FEF7F4F8002802D1CE
:103F7000044804B010BD02F0F3FE0028F3D102485B
:103F8000F7E7C04648A6020040A602001FB56946F2
:103F9000FEF77EF804002000FEF7DCF8002802D1CE
:103FA000044804B010BD02F0DBFE0028F3D0024844
:103FB000F7E7C04640A6020048A6020010B502F08E
:103FC0002DFD034B002800D1024B180010BDC04648
:103FD00048A6020040A6020037B502F083FD01ABFF
:103FE0007F2806D8012118700122180009F088FBEB
:103FF0003EBD1E49820988420BD8402149420A43EE
:104000001A703F22024080204042104358704231D3
:10401000EAE7174C010BA0420ED82024644221434A
:10402000197080215F344942224020400A430143F5
:1040300099705A700321D7E70E4CA04212D8102471
:10404000850C64422C431C703F2580242940644227
:104050002A40284021432243204359709A70D87047
:104060000421C1E70448FEF743FCC046FF070000F7
:10407000FFFF0000FFFF10007F140300F0B589B0C0
:10408000019204000D0000222F490198029305F0CF
:1040900017F90090002801D043680093012C16D036
:1040A000A4002B19002427000193019B9D4224D0DA
:1040B000009B2E68002B04D0310018001DF08AFCF4
:1040C0000600002C37D137002C680435EDE70024BA
:1040D00004A92868FDF7DCFF270003900398FEF78A
:1040E00039F8051E0CD1002C07D122001749019880
:1040F00005F0E6F800281BD04468200009B0F0BDA8
:10410000009B2E00002B04D0290018001DF062FC3B
:104110000600002C09D03A0031000298FEF7F0FBAF
:104120000B4B984201D025003E002C003700D5E70C
:104130000848FEF7DDFB3A0031000298FEF7E0FB8D
:10414000034B9842C1D1BEE7561300002E11000068
:1041500048A60200A014030037B501A9050009F024
:1041600027FF1E4B04002B40062B05D0AB072AD19E
:104170001B4B2A689A4226D10199200021F022FD8A
:104180000190012822D1207843B2002B04DB0120CA
:1041900023785B0018433EBD7F23013418403F3B2A
:1041A000034208D13F22237819009143802905D08A
:1041B0001EF0C2F8EFE798435B10F1E7800113406F
:1041C00001341843EFE7019B012BE0D0019A054928
:1041D000054802F0E1FAFFF7EFFDC046070080FF57
:1041E000CCC40200B9140300E4A30200F0B514002B
:1041F00087B00290039100222349200005F060F867
:10420000002205002149200005F05AF8012304008E
:10421000049305931E4F002D07D068681D4B9842EC
:1042200003D004A909F0C4FE07001B4E002C07D0E0
:104230006068184B984203D005A909F0B9FE060042
:104240000024029B154D9C420AD10023059A01933C
:1042500000933100280000F039FF0E4807B0F0BD90
:10426000002C07D00023049A019300933900280002
:1042700000F02CFF0399A3000022C958280002F087
:1042800061FB0134DDE7C0468E1500009611000089
:104290004A7E03001CAC0200DB530300489D020071
:1042A00010B5040086B06A4602A8102106F0FEFF91
:1042B00001222100684602F045FB02A9024809F0EC
:1042C000E9F906B010BDC046CCC4020070B50C6858
:1042D000E30726D4A30703D1174B22689A4220D0C4
:1042E000012820D9486802F0FDFB0600200002F0FA
:1042F0005DFC051C300016F0A1FE011C0F4819F0F2
:104300005DFB011C041C281C16F06CFB18F0C6FF9A
:10431000211C16F08FF9032302249843084B044311
:10432000E418200070BD200002F040FC18F0B6FF39
:1043300004F046FA0400F4E7D4AB02000000204188
:104340000000808030B50B0085B01400012802D930
:104350000948FEF791FC09480121C2680192019DBC
:104360000022A8472200039003A90120FFF748F983
:10437000039805B030BDC0460D15030054980200E7
:1043800013B50400080009F0DDF96A4601002000B9
:10439000FDF700FE009B0248002B00D1014816BD2E
:1043A00048A6020040A6020037B50024022800D922
:1043B0008C6848680D6809F0C5F90A4B0100002CAB
:1043C00000D0094B6A4628009847009B002B07D075
:1043D00001991C00002903D01800FEF783FC04009B
:1043E00020003EBDF91F0000951F000070B50400BD
:1043F0000800150009F0A6F92A0001002000FDF7C9
:1044000023FE014870BDC0461CAC0200F8B503266F
:10441000050007003540022D16D10E4B0340062B38
:1044200012D0FF23DB05C418B443201C002115F073
:1044300045FE002806D080231B06E418B443064B33
:104440002C43E7183800F8BD380001F05BFD070089
:10445000F8E7C046070080FF000080807FB50B00B2
:10446000012803D10021186802F086FA102102A861
:1044700020F008FA0C4902A822F04EF9032804D1D2
:104480000A481DF0C7FFFFF797FC039B0193002B21
:1044900003D1042801D10648F3E702A9054809F031
:1044A000F9F807B000BDC0464B13030050A102004D
:1044B000AC9F0200CCC4020010B5FDF723FE00281B
:1044C00004D103481DF0A6FFFFF776FC10BDC046DF
:1044D00030A3020010B5022803D0054905481DF09D
:1044E000BDFA4A680B200968FEF70AFA10BDC046FB
:1044F000F314030040A202007FB50D4D0400A84252
:1045000013D00C4E01220100300002F01BFA0A49C0
:1045100030001DF012FD04230293084B0394DB6965
:1045200002AA0321064801939847280004B070BDF1
:104530001CAC0200489D0200DB53030008CA0200C5
:10454000609A0200F8B50E0000280FD10400284B35
:104550001D68002108001DF0ADFB00270600BD42CC
:1045600032D10025AC423ED13000F8BD0868830747
:1045700014D103681F4A93420DD121F083FA05003C
:10458000306802F0C7F91C4BC26800249A42E0D19F
:1045900034680434DDE7194A934201D002F0BAF9D5
:1045A000856B002DECD0164B2A689A42E8D0002586
:1045B000E6E7EA68FB009958002904D0042902D0F4
:1045C0003000FEF7BDFF0137AB68BB42F1D8C8E74A
:1045D000A268EB009958002904D0042902D03000C9
:1045E000FEF7AEFF01356368AB42F1D8BCE7C046C9
:1045F000782E002008CA02005D0C01001CCE0200CB
:1046000008960200F0B585B005001600080003AB5F
:1046100002AA01A920F027FB0398364FB84209D01F
:10462000032807D002F05EFAB060002804D13248B7
:10463000FEF75EF90123B3600198B84229D1002446
:10464000B368A34200DC6C1E0298B84225D1B3685F
:10465000002B47DD2800002C2ADA641901D5B36845
:10466000DC17002834DA401901D501204042B36834
:10467000002B00DA0130B368002B2DDDA04200DAF8
:104680002000013B706058425841C0B2346005B010
:10469000F0BD02F027FA0400D6E702F023FAB3686F
:1046A000002801DBDA0F8018002CD6DB002B03DD9D
:1046B000AC42D6D92C00D4E7002BD2D0A54200D8EA
:1046C0006C1E002804DA4019D4D501204042D1E7FD
:1046D000A842D0D92800CEE7002BD2D0A042D0DD0E
:1046E000601CCEE7002C01DA0020B6E700208342F0
:1046F000E4D1C0E71CAC020038150300F0B5060099
:1047000085B017001B2805D10A9A974209D00020CE
:1047100005B0F0BD19281AD01C281AD00A9A0A9799
:1047200017001A000B0011000A9A0192BA4200D930
:1047300001971D000C0000230093009B019A9342F7
:1047400009D10A9BBB4220D0E1D30120E0E71A2621
:10475000EAE71D26E8E70295039401CD02CC02F0BA
:104760006FF9002802D0009B0133E5E71B2ECED065
:10477000039B30001A68029B1968FEF7C1F8044BCE
:10478000C01A43425841C0B2C2E71A2EDDD1BEE77B
:1047900048A60200F0B51E0085B0039018680D0011
:1047A000170002F0B7F87368019002930024022FFB
:1047B0000ED90123B268290002F06CFA0400032F1D
:1047C00006D029000123F268019802F063FA05007F
:1047D000A54202D80848FEF78BF8039AA300029975
:1047E000D05802F02DF9002801D10134F0E7012062
:1047F0006400204305B0F0BD52150300F7B52D4FFE
:10480000B43701972B4A2C49FC32536C8B4200D8A9
:10481000F7BD0325043B53641A68264B501CAC3388
:104820001E6804008108715C2C4064002141831AD9
:10483000294001300229F4D00326019912010968A8
:104840001B018A181B499B08002BDBD00F20146822
:10485000044229D119480068A04225D80D00B83576
:104860002D68A54220D9241A200900900800AC30F8
:104870000068A409009D0419207835406D00844625
:104880002841304001280FD13700AF403D00674636
:104890003D4325700D00FC356C6C094FBC4206D2BF
:1048A000201D686400982060013B0432CCE70C00B6
:1048B000BC34F8E7782E0020382F00202C2F002061
:1048C000B82F00200F23994370B506000D00081A79
:1048D000412115F02DFA0F4C02002300B03318606F
:1048E00023002100AC331E608301EB1AB4310B604E
:1048F00023003000B83300211D6024F066FA8023C5
:10490000FC345B020122A36400235242E36422656B
:10491000636570BD782E0020A222034952008B5A95
:1049200001338B527047C046782E0020A2220349E3
:1049300052008B5A013B8B527047C046782E0020A4
:10494000A223034A5B00D05A431E9841C0B270476D
:10495000782E0020F7B50400032589004318019341
:10496000019B9C4200D1F7BD0F232168194229D138
:10497000184B1A00B43212688A4223D81800B83093
:10498000006888421ED9891A1A000F093800AC3213
:104990001268890951180A7828404000944602415B
:1049A0002A40012A0ED12E00864030006646304350
:1049B00008701800FC30416C074EB14206D20B1D46
:1049C00043640F60FFF71AFF0434C9E7BC331A6071
:1049D000F8E7C046782E0020B82F0020A22210B59C
:1049E00008485200835A0100013383520300002219
:1049F000FC33BC310A60DA64034A27215A64FFF7AA
:104A0000A9FF10BD782E0020382F0020F8B503260E
:104A10002E4C00252200BC321368AB4213D1022277
:104A20001900032794462200B03212689200914286
:104A30002AD323000022FC335A654532FF32A35AA1
:104A4000013BA352F8BD23001560214AFC335A6490
:104A50002300B0331B689B009D42D9D22200AC32A8
:104A60001268AB08D35C2A00324052001341334035
:104A7000032B07D12200FC32536C191D51641D60B9
:104A8000FFF7BCFE0135E3E72000AC3000688A0880
:104A9000801802780D0016003D406D002E413E400A
:104AA000022E09D0032E0BD0012E07D13B00AB40C4
:104AB0009A430270012301E0002BF7D10131B2E7E4
:104AC0006346AB409A4302700023F7E7782E00203C
:104AD000382F0020334BF0B51A001900B832B4312A
:104AE00009681268521A1900B0331E680260032365
:104AF0000022AC310F68140011009C4642608260B5
:104B0000C260026142618261B60065468B08FB5C4F
:104B10000D406D002B4165462B404568012B33D07D
:104B2000002B2BD0022B32D001318E420AD06546A9
:104B30008B08FB5C0D406D002B4165462B4001D07E
:104B4000012BE2D1012C26D105690135056185696A
:104B5000A54200D284618E4201D0012BD5D1C36819
:104B6000934200D2C2608E4206D143681B0143606B
:104B700083681B018360F0BD0022C6E784680132B0
:104B8000013484601C00CFE701354560FAE7013548
:104B900045600134C8E7022CD9D14569013545612A
:104BA000D5E7C046782E0020F7B50F3003090193F2
:104BB00002D100242000FEBDA223474A5B00D35A45
:104BC000002BF6D14733FF33D35A5E425E41002BB0
:104BD00007D0414BFC33DA6C1B6D9A4201D30DF0C8
:104BE00097F9002430213F273B4A3B4BB0321268F3
:104BF000FC339446384A5B6DAC3210689C4505D84E
:104C0000002ED6D10DF084F90136EBE70325C25C06
:104C10002A4231D1019D0134A5422ED89B00191B97
:104C20004E1C5A1C012C03D12B4C9708FC34676591
:104C3000B40800190324270037407F00A446023C33
:104C4000BC40077802313C43234F0470AC378B42A1
:104C500034D22149204DB431FC350C68E96C330164
:104C60008C46E418019B921B634412010021200032
:104C7000EB6424F0AAF89DE700240C252A4206D113
:104C8000019D0134A54203D89B000133C7E70024EE
:104C90000A4206D1019D0134A54203D89B0002338C
:104CA000BDE70024BA4306D1019A0134A24203D8D9
:104CB0009B000333B3E7002401339FE73C68880877
:104CC0002018644602250C406400A5402C0005789D
:104CD00001312C430470BAE7782E0020A22230B5AF
:104CE000164B52009A5A002A26D1002824D01A00C6
:104CF000B4321268801A1A00FC32546D010980091E
:104D0000A04200D25065AC331800032204688B081F
:104D1000E3180C00150014406400A5401C78013114
:104D2000AC431C7004688B08E35C0C001440640006
:104D300023411340022BE9D030BDC046782E00201D
:104D40000F2203000240002070B5824228D1154C8A
:104D500010002100B4310968994221D82000B830F0
:104D6000056810009D421BD9AC345B1A24681909F0
:104D70009B09E55C08000323184040000541100032
:104D80001D40012D0CD14D1C2E00AA08A25C1E4016
:104D900076003241681A1A400135022AF4D0000127
:104DA00070BDC046782E0020F0B585B007000D001C
:104DB0000292002807D101002800FFF7F5FE060047
:104DC000300005B0F0BD002903D1FFF787FF2E00AA
:104DD000F6E70F2100260140B142F1D153480E0001
:104DE0000300B4331B68BB42EAD80200B832126831
:104DF000BA42E5D9FB1A1A0900920200AC321268D5
:104E00009B090192D25C0323009C23405B001A4162
:104E100003231A40012AD3D14233FF33C35A002B54
:104E2000CED129000F310909B0308C460168032624
:104E300089000391210014000131039A914212D29A
:104E400001988A08825C08003040400002413240EC
:104E5000022A02D101340131EFE7002A03D10133E4
:104E6000E2186245F7D3644501D13E00A8E76445E6
:104E700021D9009B032663441900009B0800E21817
:104E8000AC239C46294B9C44634605001B68840860
:104E90001C19330035406D00AB40257801309D432F
:104EA00025709042F0D1214B8908FC335A6D914214
:104EB000DBD25965D9E71B19634523D303250226A5
:104EC0001A49009BAC31E3180191009A62449A425E
:104ED00009D86346191B090120010A00381800216E
:104EE00023F073FFC1E70199180009689A088A182E
:104EF0003100284040008140080011780133084308
:104F00001070E2E7029E002E00D159E70021280030
:104F1000FFF74AFE061E00D152E72201390023F0B6
:104F200038FF3800FFF7DAFE4AE7C046782E002047
:104F300010B58CB005A8FFF7CDFD079B0A4C039375
:104F40000093059A069B094920001DF0B7F8089BBD
:104F5000099A01930B9B06490393009320000A9B37
:104F60001DF0ACF80CB010BD489D0200A815030060
:104F7000CB150300F8B5434E434F3300B4331A68E2
:104F8000424938001DF09AF800243300B0331B6802
:104F90009B00A34223D93F2214422CD1320025008A
:104FA000AC3210680321AA08825C294049000A41FA
:104FB00003210A4202D10135AB42F3D12A1B7F2AD9
:104FC00012D99209324938001DF078F82C003F239D
:104FD0009C433300B0331B689B00A34204D83800C5
:104FE0002C491CF0AAFFF8BD2B4B22011A402B497B
:104FF00038001DF063F83200AC321268A308D35CAD
:105000000322224052001341032213403A32022B62
:1050100031D03032032B2ED03F3A012B2BD133002D
:10502000B4331B682201D3581D4954228B4222D02D
:105030001C49083A8B421ED01B49083A8B421AD0B1
:105040001A490F328B4216D019498B4213D0194995
:10505000123A8B420FD018498B420CD017490532B7
:105060008B4208D01649043A8B4204D015492632A7
:105070008B4200D11B3A144938001DF01FF801344F
:1050800083E7C046782E0020489D02006915030082
:1050900084150300DB530300F0FF0F00A01503008D
:1050A000AC9102005498020008960200CCC40200A1
:1050B00008C60200F89D0200BC9D020068A502001F
:1050C0002893020008CA02001E700300F0B587B0E2
:1050D000039205910D9A03990500521A0CA90978BB
:1050E00020200C00844339D030293BD00CA90291F8
:1050F0000121802401911C4036D0D40FA4186410E3
:10510000171B002C37DD2600019B0493B34200DD02
:1051100004966B68049A029928689847049BF61ACB
:10512000002EF1DC039B002B06D01A0005996B685A
:1051300028689847039BE418002F0CDDE419019EB2
:10514000BE4200DD3E003200029928686B68984735
:10515000BF1B002FF3DC200007B0F0BD0749029110
:105160001021C6E70649FAE701271F4001D11400C4
:10517000C7E71700D6E70024D4E7C046221603008D
:1051800033160300F0B593B01C0018AB20CB05908C
:105190001B780F0016000793CB070BD48B0703D1A6
:1051A000854B0A689A4205D0380001F09BFC012724
:1051B0004000074381231D4209D1079B302B06D1B4
:1051C0001A9B1B9A934200DA1A9200231B93380011
:1051D0001DF08FF80AAA1300002806DBAB070FD5D5
:1051E0002B231370123B04AA9B18E1B2EA0615D5D3
:1051F000022E0CD130221A704A1C5A7002330DE074
:1052000013006A07F1D520221A701923EBE7082E44
:105210003BD130221A70AA0534D4013300220AA8E7
:105220001A701B1A2C200693AB06DB1718400EAB26
:105230000B9310230C931B9B0D92012B01DD40233C
:105240001D43402404ABDA752C400390029123D017
:105250003B00019200960DAA0CA90BA803F064FB79
:10526000037807002D2B00D08EE004AAD3750D9B88
:105270001B9A013B01370D93012A00DD97E00026C0
:10528000340035E00A000E32B7E7102EC6D13022C6
:105290001A700A001732B0E70AAB019300963B0080
:1052A0000DAA0CA90BA803F03FFB1B9B07002600CF
:1052B000012B1DDD0D9B1B9C9C4200DA1C001A9BE0
:1052C000A3425EDD01261C1B2E4001D026000024D7
:1052D00001239D432F330793002C09D0103B0093EB
:1052E000002301941A0035490598FFF7EFFE0400EA
:1052F0006B0621D5172104ABC9180B78002B0AD0F7
:1053000000230122009301920598FFF7DFFE1A9B0C
:105310002418013B1A93069B002B0DD00123019307
:105320000023069A00930AA90598FFF7CFFE1A9B5F
:10533000069A24189B1A1A931B9B012B01DC1A9BBB
:105340001B931B9B0D9A0193079B390000930598B3
:105350002B00FFF7BBFE2418002E09D0202300935A
:10536000002301961A0015490598FFF7AFFE24188F
:105370000B980EAB984201D01DF0D3F8200013B06B
:10538000F0BD00263400A3E71B9B012B00DC76E771
:105390000D9B1B9C9C4200DA1C00172304AA9B183F
:1053A0001B78002B00D00134069BE41887E71B9C78
:1053B0009C42F8DA1C00F6E7D4AB02004B13030062
:1053C000F0B50600140000278DB00D002B78002BDF
:1053D00015D1A94217D30B78002B00D148E14B1C03
:1053E0000493202300253022082104200893049BE5
:1053F0001B78002B11D10693013B07935FE0252B0F
:10540000E7D00135E2E76B1A04931A00306873683D
:105410009847049B2900FF18DDE72D2B05D12C3B75
:105420001D43049B01330493E1E72B2B01D1293B5E
:10543000F6E7202B01D10543F3E7212B01D10D43E2
:10544000EFE7302B2CD110331D430892E9E7069A81
:105450004A43D318303B0693049B01330493049BC7
:105460001B781A00303A092AF1D92E2B47D1049B18
:105470005B782A2B18D0049B0A2101330493002364
:105480000793049B1B781A00303A092A17D8079A09
:105490004A43D318303B0793049B01330493F0E74E
:1054A00000230A210693DAE7049B0233049323685E
:1054B00004340793DB43079ADB171A400792049BD7
:1054C0001B786C3B5A425341049AD31804931B78BF
:1054D0000593002B00D1CBE0642B00D1A1E022D8B2
:1054E000502B29D00ED8453B022B00D8A9E0012231
:1054F00004993068736898470137099452E0012392
:105500005B427AE7059B622B3CD057D8582BEED1F3
:10551000231D0993069B01950393089B0293412346
:105520000093313B7BE0059B712B53D00FD8672B49
:1055300000D886E0702BDAD1231D0993069B0195D4
:105540000393089B029361230093513B67E0059B03
:10555000752B5AD0782BEFD0732BC8D1231D24681C
:105560000993002C49D0079B013303D1200023F07D
:1055700080FC0790069B079A0193089B21000093EB
:105580002B000BE0231D09932368002B0ED0069BF4
:1055900004220193089B384900932B003000FFF749
:1055A00095FD3F180499099C01310EE7069B0522E1
:1055B0000193089B314900932B00EFE7231D0993CA
:1055C00023680BA90B70069B01220193089B009393
:1055D0002B00E3E7231D0BA9206809931FF053FA62
:1055E000079B0100013301D10B9B0793069B079A90
:1055F0000193089B00932B00D0E7069B06220193A2
:10560000089B1F4900932B00C8E7231D0993069BA5
:1056100001950393089B029361230093573B00225B
:105620000AE0231D0993069B01220393089B019521
:10563000029361230093573B216830001CF08CFCDF
:10564000AFE7072307349C432300206861680833D1
:10565000099317F01FFB079B011C0293069B059AF9
:105660000193089B300000932B001CF0E2FC98E7AC
:1056700038000DB0F0BDC04610160300151603002B
:105680001B160300F7B505002C200E001700019330
:105690001CF02AFF0400057086608781072D01D069
:1056A000012D0FD1337872780A3B1B021343E3813B
:1056B000019B20206375042363841CF003FFA06218
:1056C0002000FEBD014B5B5DF1E7C04644160300C0
:1056D000002803D0012807D0002004E08B6804488C
:1056E000002B00D1034870478B685B001843FAE732
:1056F00048A6020040A60200034B48600B6000234E
:1057000008008B60CB607047609D02007FB504008D
:105710000122080001A901F09FFB0022217940200D
:10572000FAF78CFE01000500029814F001FB636893
:1057300006001A0A824218D2A368C1186943E068B9
:105740001CF0DEFE6368E060DBB22A00A0686360E4
:105750006843E36872431818019923F01AFBA368A1
:1057600004489E19A66004B070BD121A1202DBB282
:105770001343EAE71CAC0200F7B5FF2745680400B5
:105780000191BD431DD101792A004020FAF756FE50
:10579000636806003B408027A1683F011F43083132
:1057A00041436760E0681CF0ABFE6368E0601A0A82
:1057B000A368013A013372435E432900801923F044
:1057C00004FB2079019BA268E168FAF7D7FFA36880
:1057D00003480133A3606368013BFF3B6360FEBD88
:1057E0001CAC0200F8B5002207000D0001004020AB
:1057F000FAF724FE060010201CF064FE084B04009B
:10580000012F00D0074B2800277123606368A56033
:10581000DBB2704363601CF055FEE0602000F8BD11
:10582000F89D0200BC9D020070B506008AB00C0015
:10583000150012285CD003D8052826D0002454E097
:105840001B2800D16CE01F28F8D1012207A92800ED
:105850001CF01FFE032300284FD01C4213D13B4BEA
:1058600022689A420FD1012204A920001CF0A1FC59
:105870000123079A00930599089B04981FF09DFF48
:10588000334C002831D1334C2FE0012204A92000F1
:105890001CF08FFC2800012207A901F0DDFA069B0D
:1058A000002203936B464020197BFAF7C7FD0100E5
:1058B0000600089814F03CFA069BA16803936B4617
:1058C00041180500187BFFF78DFF059B04001A00A7
:1058D0000499C068039323F05CFA2A000598E368F2
:1058E00072431818079923F054FA20000AB070BDCB
:1058F00011002000FFF70AFFF7E7EA070DD41D4269
:1059000003D1154B2A689A4207D003232B40022B60
:10591000B9D1124B1D40062DB5D01148FDF7DAF96B
:10592000012204A920001CF044FC012207A9280040
:105930001CF0AFFD0028A6D0089B059A009304999F
:10594000079B30001CF0A9FA9AE7C046F89D0200B8
:1059500048A6020040A60200D4AB0200070080FF68
:105960004B130300F0B5050087B00E00012808D0E6
:105970008B0726D10B68264A934202D0254A9342D0
:105980001FD1012203A930001CF083FD002818D08C
:10599000002229004020FAF751FD01000700049879
:1059A00014F0C6F9060001002800FFF71BFF3200C3
:1059B00004007A430399C06823F0EBF9200007B094
:1059C000F0BD300001F0A8F9071E00D047103900E3
:1059D0002800FFF707FF002104003000FCF758FB08
:1059E000002600900098FCF7B5FB031EE6D0002FC0
:1059F00004D119002000FFF7BFFEF3E7721C0192EB
:105A0000E16832002800FAF7B9FE019EEAE7C046D5
:105A100008C60200F89D020070B50E7904000D0062
:105A2000012E0DD119491CF088FA3300AA68E968E3
:105A3000200007F0CBFD164920001CF07EFA70BD57
:105A4000320014491CF03AFBAB68002BF3D012492A
:105A500020001CF072FA0026AB68B34204D80F494C
:105A600020001CF06AFAE6E7002E03D00C49200063
:105A70001CF063FA3200E9682879FAF747FD012241
:105A80000100200000F05EFF0136E5E74B16030041
:105A9000F91803005716030062160300EB4D0300CC
:105AA000F4FB020070B5050086B0161E44D0032436
:105AB00080680C402BD1214B0A689A4227D103AA57
:105AC000FEF7A0FD002802D11D48FDF703F9042EC2
:105AD0001AD1220029794020FAF7B0FC049B060075
